{
  "_format": "hh-sol-artifact-1",
  "contractName": "NftGame",
  "sourceName": "contracts/NftGame.sol",
  "abi": [
    {
      "inputs": [
        {
          "internalType": "string[]",
          "name": "characterNames",
          "type": "string[]"
        },
        {
          "internalType": "string[]",
          "name": "characterImageURIs",
          "type": "string[]"
        },
        {
          "internalType": "uint256[]",
          "name": "characterHp",
          "type": "uint256[]"
        },
        {
          "internalType": "uint256[]",
          "name": "characterAttackDmg",
          "type": "uint256[]"
        },
        {
          "internalType": "string",
          "name": "bossName",
          "type": "string"
        },
        {
          "internalType": "string",
          "name": "bossImageURI",
          "type": "string"
        },
        {
          "internalType": "uint256",
          "name": "bossHp",
          "type": "uint256"
        },
        {
          "internalType": "uint256",
          "name": "bossAttackDamage",
          "type": "uint256"
        }
      ],
      "stateMutability": "nonpayable",
      "type": "constructor"
    },
    {
      "anonymous": false,
      "inputs": [
        {
          "indexed": true,
          "internalType": "address",
          "name": "owner",
          "type": "address"
        },
        {
          "indexed": true,
          "internalType": "address",
          "name": "approved",
          "type": "address"
        },
        {
          "indexed": true,
          "internalType": "uint256",
          "name": "tokenId",
          "type": "uint256"
        }
      ],
      "name": "Approval",
      "type": "event"
    },
    {
      "anonymous": false,
      "inputs": [
        {
          "indexed": true,
          "internalType": "address",
          "name": "owner",
          "type": "address"
        },
        {
          "indexed": true,
          "internalType": "address",
          "name": "operator",
          "type": "address"
        },
        {
          "indexed": false,
          "internalType": "bool",
          "name": "approved",
          "type": "bool"
        }
      ],
      "name": "ApprovalForAll",
      "type": "event"
    },
    {
      "anonymous": false,
      "inputs": [
        {
          "indexed": false,
          "internalType": "uint256",
          "name": "newBossHp",
          "type": "uint256"
        },
        {
          "indexed": false,
          "internalType": "uint256",
          "name": "newPlayerHp",
          "type": "uint256"
        },
        {
          "indexed": false,
          "internalType": "address",
          "name": "playerAddress",
          "type": "address"
        },
        {
          "indexed": false,
          "internalType": "uint256",
          "name": "bossAttackDamage",
          "type": "uint256"
        },
        {
          "indexed": false,
          "internalType": "uint256",
          "name": "playerAttackDamage",
          "type": "uint256"
        }
      ],
      "name": "AttackComplete",
      "type": "event"
    },
    {
      "anonymous": false,
      "inputs": [
        {
          "indexed": false,
          "internalType": "address",
          "name": "sender",
          "type": "address"
        },
        {
          "indexed": false,
          "internalType": "uint256",
          "name": "tokenId",
          "type": "uint256"
        },
        {
          "indexed": false,
          "internalType": "uint256",
          "name": "characterIndex",
          "type": "uint256"
        }
      ],
      "name": "CharacterNFTMinted",
      "type": "event"
    },
    {
      "anonymous": false,
      "inputs": [
        {
          "indexed": true,
          "internalType": "address",
          "name": "from",
          "type": "address"
        },
        {
          "indexed": true,
          "internalType": "address",
          "name": "to",
          "type": "address"
        },
        {
          "indexed": true,
          "internalType": "uint256",
          "name": "tokenId",
          "type": "uint256"
        }
      ],
      "name": "Transfer",
      "type": "event"
    },
    {
      "inputs": [
        {
          "internalType": "address",
          "name": "to",
          "type": "address"
        },
        {
          "internalType": "uint256",
          "name": "tokenId",
          "type": "uint256"
        }
      ],
      "name": "approve",
      "outputs": [],
      "stateMutability": "nonpayable",
      "type": "function"
    },
    {
      "inputs": [],
      "name": "attackBoss",
      "outputs": [],
      "stateMutability": "nonpayable",
      "type": "function"
    },
    {
      "inputs": [
        {
          "internalType": "uint256",
          "name": "random",
          "type": "uint256"
        },
        {
          "internalType": "address",
          "name": "playerAddr",
          "type": "address"
        }
      ],
      "name": "attackRNGVerdict",
      "outputs": [],
      "stateMutability": "nonpayable",
      "type": "function"
    },
    {
      "inputs": [
        {
          "internalType": "address",
          "name": "owner",
          "type": "address"
        }
      ],
      "name": "balanceOf",
      "outputs": [
        {
          "internalType": "uint256",
          "name": "",
          "type": "uint256"
        }
      ],
      "stateMutability": "view",
      "type": "function"
    },
    {
      "inputs": [],
      "name": "bigBoss",
      "outputs": [
        {
          "internalType": "string",
          "name": "name",
          "type": "string"
        },
        {
          "internalType": "string",
          "name": "imageURI",
          "type": "string"
        },
        {
          "internalType": "uint256",
          "name": "hp",
          "type": "uint256"
        },
        {
          "internalType": "uint256",
          "name": "maxHp",
          "type": "uint256"
        },
        {
          "internalType": "uint256",
          "name": "attackDamage",
          "type": "uint256"
        }
      ],
      "stateMutability": "view",
      "type": "function"
    },
    {
      "inputs": [],
      "name": "checkIfUserHasNFT",
      "outputs": [
        {
          "components": [
            {
              "internalType": "uint256",
              "name": "characterIndex",
              "type": "uint256"
            },
            {
              "internalType": "string",
              "name": "name",
              "type": "string"
            },
            {
              "internalType": "string",
              "name": "imageURI",
              "type": "string"
            },
            {
              "internalType": "uint256",
              "name": "hp",
              "type": "uint256"
            },
            {
              "internalType": "uint256",
              "name": "maxHp",
              "type": "uint256"
            },
            {
              "internalType": "uint256",
              "name": "attackDamage",
              "type": "uint256"
            }
          ],
          "internalType": "struct NftGame.CharacterAttributes",
          "name": "",
          "type": "tuple"
        }
      ],
      "stateMutability": "view",
      "type": "function"
    },
    {
      "inputs": [],
      "name": "getAllDefaultCharacters",
      "outputs": [
        {
          "components": [
            {
              "internalType": "uint256",
              "name": "characterIndex",
              "type": "uint256"
            },
            {
              "internalType": "string",
              "name": "name",
              "type": "string"
            },
            {
              "internalType": "string",
              "name": "imageURI",
              "type": "string"
            },
            {
              "internalType": "uint256",
              "name": "hp",
              "type": "uint256"
            },
            {
              "internalType": "uint256",
              "name": "maxHp",
              "type": "uint256"
            },
            {
              "internalType": "uint256",
              "name": "attackDamage",
              "type": "uint256"
            }
          ],
          "internalType": "struct NftGame.CharacterAttributes[]",
          "name": "",
          "type": "tuple[]"
        }
      ],
      "stateMutability": "view",
      "type": "function"
    },
    {
      "inputs": [
        {
          "internalType": "uint256",
          "name": "tokenId",
          "type": "uint256"
        }
      ],
      "name": "getApproved",
      "outputs": [
        {
          "internalType": "address",
          "name": "",
          "type": "address"
        }
      ],
      "stateMutability": "view",
      "type": "function"
    },
    {
      "inputs": [],
      "name": "getBigBoss",
      "outputs": [
        {
          "components": [
            {
              "internalType": "string",
              "name": "name",
              "type": "string"
            },
            {
              "internalType": "string",
              "name": "imageURI",
              "type": "string"
            },
            {
              "internalType": "uint256",
              "name": "hp",
              "type": "uint256"
            },
            {
              "internalType": "uint256",
              "name": "maxHp",
              "type": "uint256"
            },
            {
              "internalType": "uint256",
              "name": "attackDamage",
              "type": "uint256"
            }
          ],
          "internalType": "struct NftGame.BigBoss",
          "name": "",
          "type": "tuple"
        }
      ],
      "stateMutability": "view",
      "type": "function"
    },
    {
      "inputs": [],
      "name": "getRandomNumber",
      "outputs": [],
      "stateMutability": "nonpayable",
      "type": "function"
    },
    {
      "inputs": [
        {
          "internalType": "address",
          "name": "owner",
          "type": "address"
        },
        {
          "internalType": "address",
          "name": "operator",
          "type": "address"
        }
      ],
      "name": "isApprovedForAll",
      "outputs": [
        {
          "internalType": "bool",
          "name": "",
          "type": "bool"
        }
      ],
      "stateMutability": "view",
      "type": "function"
    },
    {
      "inputs": [
        {
          "internalType": "uint256",
          "name": "_characterIndex",
          "type": "uint256"
        }
      ],
      "name": "mintCharacterNFT",
      "outputs": [],
      "stateMutability": "nonpayable",
      "type": "function"
    },
    {
      "inputs": [],
      "name": "name",
      "outputs": [
        {
          "internalType": "string",
          "name": "",
          "type": "string"
        }
      ],
      "stateMutability": "view",
      "type": "function"
    },
    {
      "inputs": [
        {
          "internalType": "uint256",
          "name": "",
          "type": "uint256"
        }
      ],
      "name": "nftHolderAttributes",
      "outputs": [
        {
          "internalType": "uint256",
          "name": "characterIndex",
          "type": "uint256"
        },
        {
          "internalType": "string",
          "name": "name",
          "type": "string"
        },
        {
          "internalType": "string",
          "name": "imageURI",
          "type": "string"
        },
        {
          "internalType": "uint256",
          "name": "hp",
          "type": "uint256"
        },
        {
          "internalType": "uint256",
          "name": "maxHp",
          "type": "uint256"
        },
        {
          "internalType": "uint256",
          "name": "attackDamage",
          "type": "uint256"
        }
      ],
      "stateMutability": "view",
      "type": "function"
    },
    {
      "inputs": [
        {
          "internalType": "address",
          "name": "",
          "type": "address"
        }
      ],
      "name": "nftHolders",
      "outputs": [
        {
          "internalType": "uint256",
          "name": "",
          "type": "uint256"
        }
      ],
      "stateMutability": "view",
      "type": "function"
    },
    {
      "inputs": [
        {
          "internalType": "uint256",
          "name": "tokenId",
          "type": "uint256"
        }
      ],
      "name": "ownerOf",
      "outputs": [
        {
          "internalType": "address",
          "name": "",
          "type": "address"
        }
      ],
      "stateMutability": "view",
      "type": "function"
    },
    {
      "inputs": [],
      "name": "randomResult",
      "outputs": [
        {
          "internalType": "uint256",
          "name": "",
          "type": "uint256"
        }
      ],
      "stateMutability": "view",
      "type": "function"
    },
    {
      "inputs": [
        {
          "internalType": "bytes32",
          "name": "requestId",
          "type": "bytes32"
        },
        {
          "internalType": "uint256",
          "name": "randomness",
          "type": "uint256"
        }
      ],
      "name": "rawFulfillRandomness",
      "outputs": [],
      "stateMutability": "nonpayable",
      "type": "function"
    },
    {
      "inputs": [
        {
          "internalType": "address",
          "name": "from",
          "type": "address"
        },
        {
          "internalType": "address",
          "name": "to",
          "type": "address"
        },
        {
          "internalType": "uint256",
          "name": "tokenId",
          "type": "uint256"
        }
      ],
      "name": "safeTransferFrom",
      "outputs": [],
      "stateMutability": "nonpayable",
      "type": "function"
    },
    {
      "inputs": [
        {
          "internalType": "address",
          "name": "from",
          "type": "address"
        },
        {
          "internalType": "address",
          "name": "to",
          "type": "address"
        },
        {
          "internalType": "uint256",
          "name": "tokenId",
          "type": "uint256"
        },
        {
          "internalType": "bytes",
          "name": "_data",
          "type": "bytes"
        }
      ],
      "name": "safeTransferFrom",
      "outputs": [],
      "stateMutability": "nonpayable",
      "type": "function"
    },
    {
      "inputs": [
        {
          "internalType": "address",
          "name": "operator",
          "type": "address"
        },
        {
          "internalType": "bool",
          "name": "approved",
          "type": "bool"
        }
      ],
      "name": "setApprovalForAll",
      "outputs": [],
      "stateMutability": "nonpayable",
      "type": "function"
    },
    {
      "inputs": [
        {
          "internalType": "bytes4",
          "name": "interfaceId",
          "type": "bytes4"
        }
      ],
      "name": "supportsInterface",
      "outputs": [
        {
          "internalType": "bool",
          "name": "",
          "type": "bool"
        }
      ],
      "stateMutability": "view",
      "type": "function"
    },
    {
      "inputs": [],
      "name": "symbol",
      "outputs": [
        {
          "internalType": "string",
          "name": "",
          "type": "string"
        }
      ],
      "stateMutability": "view",
      "type": "function"
    },
    {
      "inputs": [
        {
          "internalType": "uint256",
          "name": "_tokenId",
          "type": "uint256"
        }
      ],
      "name": "tokenURI",
      "outputs": [
        {
          "internalType": "string",
          "name": "",
          "type": "string"
        }
      ],
      "stateMutability": "view",
      "type": "function"
    },
    {
      "inputs": [
        {
          "internalType": "address",
          "name": "from",
          "type": "address"
        },
        {
          "internalType": "address",
          "name": "to",
          "type": "address"
        },
        {
          "internalType": "uint256",
          "name": "tokenId",
          "type": "uint256"
        }
      ],
      "name": "transferFrom",
      "outputs": [],
      "stateMutability": "nonpayable",
      "type": "function"
    },
    {
      "inputs": [
        {
          "internalType": "bytes32",
          "name": "",
          "type": "bytes32"
        }
      ],
      "name": "vrfRequestIdToAddress",
      "outputs": [
        {
          "internalType": "address",
          "name": "",
          "type": "address"
        }
      ],
      "stateMutability": "view",
      "type": "function"
    }
  ],
  "bytecode": "0x60c06040523480156200001157600080fd5b506040516200637038038062006370833981810160405281019062000037919062000b2d565b73b3dccb4cf7a26f6cf6b120cf5a73875b7bbc655b7301be23585060835e02b77ef475b0cc51aa1e07096040518060400160405280600681526020017f4865726f657300000000000000000000000000000000000000000000000000008152506040518060400160405280600481526020017f4845524f000000000000000000000000000000000000000000000000000000008152508160009080519060200190620000e5929190620008c0565b508060019080519060200190620000fe929190620008c0565b5050508173ffffffffffffffffffffffffffffffffffffffff1660a08173ffffffffffffffffffffffffffffffffffffffff1660601b815250508073ffffffffffffffffffffffffffffffffffffffff1660808173ffffffffffffffffffffffffffffffffffffffff1660601b8152505050507f2ed0feb3e7fd2022120aa84fab1945545a9f2ffc9076fd6156fa96eaff4c131160001b60078190555067016345785d8a00006008819055506040518060a0016040528085815260200184815260200183815260200183815260200182815250600c6000820151816000019080519060200190620001f1929190620008c0565b50602082015181600101908051906020019062000210929190620008c0565b50604082015181600201556060820151816003015560808201518160040155905050620003936040518060600160405280602a815260200162006346602a9139600c6000018054620002629062000eb8565b80601f0160208091040260200160405190810160405280929190818152602001828054620002909062000eb8565b8015620002e15780601f10620002b557610100808354040283529160200191620002e1565b820191906000526020600020905b815481529060010190602001808311620002c357829003601f168201915b5050505050600c60020154600c6001018054620002fe9062000eb8565b80601f01602080910402602001604051908101604052809291908181526020018280546200032c9062000eb8565b80156200037d5780601f1062000351576101008083540402835291602001916200037d565b820191906000526020600020905b8154815290600101906020018083116200035f57829003601f168201915b5050505050620007d560201b620020fe1760201c565b60005b8851811015620007af57600b6040518060c001604052808381526020018b8481518110620003ed577f4e487b7100000000000000000000000000000000000000000000000000000000600052603260045260246000fd5b602002602001015181526020018a848151811062000434577f4e487b7100000000000000000000000000000000000000000000000000000000600052603260045260246000fd5b602002602001015181526020018984815181106200047b577f4e487b7100000000000000000000000000000000000000000000000000000000600052603260045260246000fd5b60200260200101518152602001898481518110620004c2577f4e487b7100000000000000000000000000000000000000000000000000000000600052603260045260246000fd5b6020026020010151815260200188848151811062000509577f4e487b7100000000000000000000000000000000000000000000000000000000600052603260045260246000fd5b6020026020010151815250908060018154018082558091505060019003906000526020600020906006020160009091909190915060008201518160000155602082015181600101908051906020019062000565929190620008c0565b50604082015181600201908051906020019062000584929190620008c0565b50606082015181600301556080820151816004015560a0820151816005015550506000600b8281548110620005e2577f4e487b7100000000000000000000000000000000000000000000000000000000600052603260045260246000fd5b90600052602060002090600602016040518060c001604052908160008201548152602001600182018054620006179062000eb8565b80601f0160208091040260200160405190810160405280929190818152602001828054620006459062000eb8565b8015620006965780601f106200066a5761010080835404028352916020019162000696565b820191906000526020600020905b8154815290600101906020018083116200067857829003601f168201915b50505050508152602001600282018054620006b19062000eb8565b80601f0160208091040260200160405190810160405280929190818152602001828054620006df9062000eb8565b8015620007305780601f10620007045761010080835404028352916020019162000730565b820191906000526020600020905b8154815290600101906020018083116200071257829003601f168201915b5050505050815260200160038201548152602001600482015481526020016005820154815250509050620007976040518060600160405280602581526020016200632160259139826020015183606001518460400151620007d560201b620020fe1760201c565b50600181620007a7919062000e1b565b905062000396565b50620007c7600a6200088160201b620021a01760201c565b505050505050505062000fa6565b6200087b84848484604051602401620007f2949392919062000cd8565b6040516020818303038152906040527f8d142cdd000000000000000000000000000000000000000000000000000000007bffffffffffffffffffffffffffffffffffffffffffffffffffffffff19166020820180517bffffffffffffffffffffffffffffffffffffffffffffffffffffffff83818316178352505050506200089760201b60201c565b50505050565b6001816000016000828254019250508190555050565b60008151905060006a636f6e736f6c652e6c6f679050602083016000808483855afa5050505050565b828054620008ce9062000eb8565b90600052602060002090601f016020900481019282620008f257600085556200093e565b82601f106200090d57805160ff19168380011785556200093e565b828001600101855582156200093e579182015b828111156200093d57825182559160200191906001019062000920565b5b5090506200094d919062000951565b5090565b5b808211156200096c57600081600090555060010162000952565b5090565b600062000987620009818462000d6e565b62000d3a565b9050808382526020820190508260005b85811015620009cb5781518501620009b0888262000ae9565b84526020840193506020830192505060018101905062000997565b5050509392505050565b6000620009ec620009e68462000d9d565b62000d3a565b9050808382526020820190508285602086028201111562000a0c57600080fd5b60005b8581101562000a40578162000a25888262000b16565b84526020840193506020830192505060018101905062000a0f565b5050509392505050565b600062000a6162000a5b8462000dcc565b62000d3a565b90508281526020810184848401111562000a7a57600080fd5b62000a8784828562000e82565b509392505050565b600082601f83011262000aa157600080fd5b815162000ab384826020860162000970565b91505092915050565b600082601f83011262000ace57600080fd5b815162000ae0848260208601620009d5565b91505092915050565b600082601f83011262000afb57600080fd5b815162000b0d84826020860162000a4a565b91505092915050565b60008151905062000b278162000f8c565b92915050565b600080600080600080600080610100898b03121562000b4b57600080fd5b600089015167ffffffffffffffff81111562000b6657600080fd5b62000b748b828c0162000a8f565b985050602089015167ffffffffffffffff81111562000b9257600080fd5b62000ba08b828c0162000a8f565b975050604089015167ffffffffffffffff81111562000bbe57600080fd5b62000bcc8b828c0162000abc565b965050606089015167ffffffffffffffff81111562000bea57600080fd5b62000bf88b828c0162000abc565b955050608089015167ffffffffffffffff81111562000c1657600080fd5b62000c248b828c0162000ae9565b94505060a089015167ffffffffffffffff81111562000c4257600080fd5b62000c508b828c0162000ae9565b93505060c062000c638b828c0162000b16565b92505060e062000c768b828c0162000b16565b9150509295985092959890939650565b600062000c938262000dff565b62000c9f818562000e0a565b935062000cb181856020860162000e82565b62000cbc8162000f7b565b840191505092915050565b62000cd28162000e78565b82525050565b6000608082019050818103600083015262000cf4818762000c86565b9050818103602083015262000d0a818662000c86565b905062000d1b604083018562000cc7565b818103606083015262000d2f818462000c86565b905095945050505050565b6000604051905081810181811067ffffffffffffffff8211171562000d645762000d6362000f4c565b5b8060405250919050565b600067ffffffffffffffff82111562000d8c5762000d8b62000f4c565b5b602082029050602081019050919050565b600067ffffffffffffffff82111562000dbb5762000dba62000f4c565b5b602082029050602081019050919050565b600067ffffffffffffffff82111562000dea5762000de962000f4c565b5b601f19601f8301169050602081019050919050565b600081519050919050565b600082825260208201905092915050565b600062000e288262000e78565b915062000e358362000e78565b9250827fffffffffffffffffffffffffffffffffffffffffffffffffffffffffffffffff0382111562000e6d5762000e6c62000eee565b5b828201905092915050565b6000819050919050565b60005b8381101562000ea257808201518184015260208101905062000e85565b8381111562000eb2576000848401525b50505050565b6000600282049050600182168062000ed157607f821691505b6020821081141562000ee85762000ee762000f1d565b5b50919050565b7f4e487b7100000000000000000000000000000000000000000000000000000000600052601160045260246000fd5b7f4e487b7100000000000000000000000000000000000000000000000000000000600052602260045260246000fd5b7f4e487b7100000000000000000000000000000000000000000000000000000000600052604160045260246000fd5b6000601f19601f8301169050919050565b62000f978162000e78565b811462000fa357600080fd5b50565b60805160601c60a05160601c61534162000fe060003960008181610dd80152612da7015260008181611b270152612d6b01526153416000f3fe608060405234801561001057600080fd5b506004361061018e5760003560e01c806395d89b41116100de578063c87b56dd11610097578063d4f24c5b11610071578063d4f24c5b146104b2578063dbdff2c1146104bc578063e985e9c5146104c6578063f8b81ef7146104f65761018e565b8063c87b56dd14610434578063c8cf27f414610464578063cc2abc28146104825761018e565b806395d89b411461036957806398da4c9514610387578063a22cb465146103bc578063a9c32679146103d8578063b88d4fde146103fa578063b953084e146104165761018e565b806342619f661161014b5780636670d0b5116101255780636670d0b5146102d157806370a08231146102ed5780637df124a11461031d57806394985ddd1461034d5761018e565b806342619f661461026757806342842e0e146102855780636352211e146102a15761018e565b806301ffc9a7146101935780630665f961146101c357806306fdde03146101e1578063081812fc146101ff578063095ea7b31461022f57806323b872dd1461024b575b600080fd5b6101ad60048036038101906101a89190613851565b610512565b6040516101ba91906147c9565b60405180910390f35b6101cb6105f4565b6040516101d89190614c30565b60405180910390f35b6101e9610750565b6040516101f69190614852565b60405180910390f35b610219600480360381019061021491906138a3565b6107e2565b60405161022691906146cb565b60405180910390f35b61024960048036038101906102449190613787565b610867565b005b61026560048036038101906102609190613681565b61097f565b005b61026f6109df565b60405161027c9190614c74565b60405180910390f35b61029f600480360381019061029a9190613681565b6109e5565b005b6102bb60048036038101906102b691906138a3565b610a05565b6040516102c891906146cb565b60405180910390f35b6102eb60048036038101906102e691906138f5565b610ab7565b005b6103076004803603810190610302919061361c565b610d06565b6040516103149190614c74565b60405180910390f35b6103376004803603810190610332919061361c565b610dbe565b6040516103449190614c74565b60405180910390f35b61036760048036038101906103629190613815565b610dd6565b005b610371610e72565b60405161037e9190614852565b60405180910390f35b6103a1600480360381019061039c91906138a3565b610f04565b6040516103b396959493929190614c8f565b60405180910390f35b6103d660048036038101906103d1919061374b565b611050565b005b6103e0611066565b6040516103f1959493929190614921565b60405180910390f35b610414600480360381019061040f91906136d0565b61119a565b005b61041e6111fc565b60405161042b91906147a7565b60405180910390f35b61044e600480360381019061044991906138a3565b6113a7565b60405161045b9190614852565b60405180910390f35b61046c6115c2565b6040516104799190614c52565b60405180910390f35b61049c600480360381019061049791906137ec565b61179a565b6040516104a991906146cb565b60405180910390f35b6104ba6117cd565b005b6104c4611b22565b005b6104e060048036038101906104db9190613645565b611c76565b6040516104ed91906147c9565b60405180910390f35b610510600480360381019061050b91906138a3565b611d0a565b005b60007f80ac58cd000000000000000000000000000000000000000000000000000000007bffffffffffffffffffffffffffffffffffffffffffffffffffffffff1916827bffffffffffffffffffffffffffffffffffffffffffffffffffffffff191614806105dd57507f5b5e139f000000000000000000000000000000000000000000000000000000007bffffffffffffffffffffffffffffffffffffffffffffffffffffffff1916827bffffffffffffffffffffffffffffffffffffffffffffffffffffffff1916145b806105ed57506105ec826121b6565b5b9050919050565b6105fc613404565b600c6040518060a001604052908160008201805461061990615014565b80601f016020809104026020016040519081016040528092919081815260200182805461064590615014565b80156106925780601f1061066757610100808354040283529160200191610692565b820191906000526020600020905b81548152906001019060200180831161067557829003601f168201915b505050505081526020016001820180546106ab90615014565b80601f01602080910402602001604051908101604052809291908181526020018280546106d790615014565b80156107245780601f106106f957610100808354040283529160200191610724565b820191906000526020600020905b81548152906001019060200180831161070757829003601f168201915b505050505081526020016002820154815260200160038201548152602001600482015481525050905090565b60606000805461075f90615014565b80601f016020809104026020016040519081016040528092919081815260200182805461078b90615014565b80156107d85780601f106107ad576101008083540402835291602001916107d8565b820191906000526020600020905b8154815290600101906020018083116107bb57829003601f168201915b5050505050905090565b60006107ed82612220565b61082c576040517f08c379a000000000000000000000000000000000000000000000000000000000815260040161082390614b70565b60405180910390fd5b6004600083815260200190815260200160002060009054906101000a900473ffffffffffffffffffffffffffffffffffffffff169050919050565b600061087282610a05565b90508073ffffffffffffffffffffffffffffffffffffffff168373ffffffffffffffffffffffffffffffffffffffff1614156108e3576040517f08c379a00000000000000000000000000000000000000000000000000000000081526004016108da90614bd0565b60405180910390fd5b8073ffffffffffffffffffffffffffffffffffffffff1661090261228c565b73ffffffffffffffffffffffffffffffffffffffff16148061093157506109308161092b61228c565b611c76565b5b610970576040517f08c379a000000000000000000000000000000000000000000000000000000000815260040161096790614ad0565b60405180910390fd5b61097a8383612294565b505050565b61099061098a61228c565b8261234d565b6109cf576040517f08c379a00000000000000000000000000000000000000000000000000000000081526004016109c690614c10565b60405180910390fd5b6109da83838361242b565b505050565b60095481565b610a008383836040518060200160405280600081525061119a565b505050565b6000806002600084815260200190815260200160002060009054906101000a900473ffffffffffffffffffffffffffffffffffffffff169050600073ffffffffffffffffffffffffffffffffffffffff168173ffffffffffffffffffffffffffffffffffffffff161415610aae576040517f08c379a0000000000000000000000000000000000000000000000000000000008152600401610aa590614b10565b60405180910390fd5b80915050919050565b73b3dccb4cf7a26f6cf6b120cf5a73875b7bbc655b73ffffffffffffffffffffffffffffffffffffffff163373ffffffffffffffffffffffffffffffffffffffff1614610b39576040517f08c379a0000000000000000000000000000000000000000000000000000000008152600401610b3090614bf0565b60405180910390fd5b6000601260008373ffffffffffffffffffffffffffffffffffffffff1673ffffffffffffffffffffffffffffffffffffffff1681526020019081526020016000205490506000601160008381526020019081526020016000209050600080610ba086612687565b915091506000806032841015610bc85760028560050154610bc19190614ec6565b9150610bd0565b846005015491505b6032831015610bf2576002600c60040154610beb9190614ec6565b9050610bfb565b600c6004015490505b81600c600201541015610c18576000600c60020181905550610c33565b81600c60020154610c299190614f20565b600c600201819055505b8085600301541015610c4e5760008560030181905550610c67565b808560030154610c5e9190614f20565b85600301819055505b610c8e60405180606001604052806025815260200161521560259139600c600201546126c4565b610cb460405180606001604052806028815260200161527a6028913986600301546126c4565b7fe2226acb267bc3238fa9b7765f2ac980103e1b9cbff6ef3b3c04eec5137a65c9600c600201548660030154898486604051610cf4959493929190614cfe565b60405180910390a15050505050505050565b60008073ffffffffffffffffffffffffffffffffffffffff168273ffffffffffffffffffffffffffffffffffffffff161415610d77576040517f08c379a0000000000000000000000000000000000000000000000000000000008152600401610d6e90614af0565b60405180910390fd5b600360008373ffffffffffffffffffffffffffffffffffffffff1673ffffffffffffffffffffffffffffffffffffffff168152602001908152602001600020549050919050565b60126020528060005260406000206000915090505481565b7f000000000000000000000000000000000000000000000000000000000000000073ffffffffffffffffffffffffffffffffffffffff163373ffffffffffffffffffffffffffffffffffffffff1614610e64576040517f08c379a0000000000000000000000000000000000000000000000000000000008152600401610e5b90614bb0565b60405180910390fd5b610e6e8282612760565b5050565b606060018054610e8190615014565b80601f0160208091040260200160405190810160405280929190818152602001828054610ead90615014565b8015610efa5780601f10610ecf57610100808354040283529160200191610efa565b820191906000526020600020905b815481529060010190602001808311610edd57829003601f168201915b5050505050905090565b6011602052806000526040600020600091509050806000015490806001018054610f2d90615014565b80601f0160208091040260200160405190810160405280929190818152602001828054610f5990615014565b8015610fa65780601f10610f7b57610100808354040283529160200191610fa6565b820191906000526020600020905b815481529060010190602001808311610f8957829003601f168201915b505050505090806002018054610fbb90615014565b80601f0160208091040260200160405190810160405280929190818152602001828054610fe790615014565b80156110345780601f1061100957610100808354040283529160200191611034565b820191906000526020600020905b81548152906001019060200180831161101757829003601f168201915b5050505050908060030154908060040154908060050154905086565b61106261105b61228c565b83836127b0565b5050565b600c80600001805461107790615014565b80601f01602080910402602001604051908101604052809291908181526020018280546110a390615014565b80156110f05780601f106110c5576101008083540402835291602001916110f0565b820191906000526020600020905b8154815290600101906020018083116110d357829003601f168201915b50505050509080600101805461110590615014565b80601f016020809104026020016040519081016040528092919081815260200182805461113190615014565b801561117e5780601f106111535761010080835404028352916020019161117e565b820191906000526020600020905b81548152906001019060200180831161116157829003601f168201915b5050505050908060020154908060030154908060040154905085565b6111ab6111a561228c565b8361234d565b6111ea576040517f08c379a00000000000000000000000000000000000000000000000000000000081526004016111e190614c10565b60405180910390fd5b6111f68484848461291d565b50505050565b6060600b805480602002602001604051908101604052809291908181526020016000905b8282101561139e57838290600052602060002090600602016040518060c00160405290816000820154815260200160018201805461125d90615014565b80601f016020809104026020016040519081016040528092919081815260200182805461128990615014565b80156112d65780601f106112ab576101008083540402835291602001916112d6565b820191906000526020600020905b8154815290600101906020018083116112b957829003601f168201915b505050505081526020016002820180546112ef90615014565b80601f016020809104026020016040519081016040528092919081815260200182805461131b90615014565b80156113685780601f1061133d57610100808354040283529160200191611368565b820191906000526020600020905b81548152906001019060200180831161134b57829003601f168201915b50505050508152602001600382015481526020016004820154815260200160058201548152505081526020019060010190611220565b50505050905090565b60606000601160008481526020019081526020016000206040518060c0016040529081600082015481526020016001820180546113e390615014565b80601f016020809104026020016040519081016040528092919081815260200182805461140f90615014565b801561145c5780601f106114315761010080835404028352916020019161145c565b820191906000526020600020905b81548152906001019060200180831161143f57829003601f168201915b5050505050815260200160028201805461147590615014565b80601f01602080910402602001604051908101604052809291908181526020018280546114a190615014565b80156114ee5780601f106114c3576101008083540402835291602001916114ee565b820191906000526020600020905b8154815290600101906020018083116114d157829003601f168201915b505050505081526020016003820154815260200160048201548152602001600582015481525050905060006115268260600151612979565b905060006115378360800151612979565b905060006115488460a00151612979565b9050600061158e856020015161155d89612979565b876040015187878760405160200161157a96959493929190614604565b604051602081830303815290604052612b26565b90506000816040516020016115a391906146a9565b6040516020818303038152906040529050809650505050505050919050565b6115ca613433565b6000601260003373ffffffffffffffffffffffffffffffffffffffff1673ffffffffffffffffffffffffffffffffffffffff168152602001908152602001600020549050600081111561178957601160008281526020019081526020016000206040518060c00160405290816000820154815260200160018201805461164f90615014565b80601f016020809104026020016040519081016040528092919081815260200182805461167b90615014565b80156116c85780601f1061169d576101008083540402835291602001916116c8565b820191906000526020600020905b8154815290600101906020018083116116ab57829003601f168201915b505050505081526020016002820180546116e190615014565b80601f016020809104026020016040519081016040528092919081815260200182805461170d90615014565b801561175a5780601f1061172f5761010080835404028352916020019161175a565b820191906000526020600020905b81548152906001019060200180831161173d57829003601f168201915b505050505081526020016003820154815260200160048201548152602001600582015481525050915050611797565b611791613433565b80925050505b90565b60136020528060005260406000206000915054906101000a900473ffffffffffffffffffffffffffffffffffffffff1681565b6000601260003373ffffffffffffffffffffffffffffffffffffffff1673ffffffffffffffffffffffffffffffffffffffff1681526020019081526020016000205490506000601160008381526020019081526020016000206040518060c00160405290816000820154815260200160018201805461184b90615014565b80601f016020809104026020016040519081016040528092919081815260200182805461187790615014565b80156118c45780601f10611899576101008083540402835291602001916118c4565b820191906000526020600020905b8154815290600101906020018083116118a757829003601f168201915b505050505081526020016002820180546118dd90615014565b80601f016020809104026020016040519081016040528092919081815260200182805461190990615014565b80156119565780601f1061192b57610100808354040283529160200191611956565b820191906000526020600020905b81548152906001019060200180831161193957829003601f168201915b50505050508152602001600382015481526020016004820154815260200160058201548152505090506119af6040518060600160405280603c81526020016152d0603c9139826020015183606001518460a00151612cc5565b611a876040518060400160405280601b81526020017f426f73732025732068617320257320485020616e642025732041440000000000815250600c60000180546119f890615014565b80601f0160208091040260200160405190810160405280929190818152602001828054611a2490615014565b8015611a715780601f10611a4657610100808354040283529160200191611a71565b820191906000526020600020905b815481529060010190602001808311611a5457829003601f168201915b5050505050600c60020154600c60040154612cc5565b6000816060015111611ace576040517f08c379a0000000000000000000000000000000000000000000000000000000008152600401611ac590614b30565b60405180910390fd5b6000600c6002015411611b16576040517f08c379a0000000000000000000000000000000000000000000000000000000008152600401611b0d90614a10565b60405180910390fd5b611b1e611b22565b5050565b6008547f000000000000000000000000000000000000000000000000000000000000000073ffffffffffffffffffffffffffffffffffffffff166370a08231306040518263ffffffff1660e01b8152600401611b7e91906146cb565b60206040518083038186803b158015611b9657600080fd5b505afa158015611baa573d6000803e3d6000fd5b505050506040513d601f19601f82011682018060405250810190611bce91906138cc565b1015611c0f576040517f08c379a0000000000000000000000000000000000000000000000000000000008152600401611c0690614a90565b60405180910390fd5b6000611c1f600754600854612d67565b9050336013600083815260200190815260200160002060006101000a81548173ffffffffffffffffffffffffffffffffffffffff021916908373ffffffffffffffffffffffffffffffffffffffff16021790555050565b6000600560008473ffffffffffffffffffffffffffffffffffffffff1673ffffffffffffffffffffffffffffffffffffffff16815260200190815260200160002060008373ffffffffffffffffffffffffffffffffffffffff1673ffffffffffffffffffffffffffffffffffffffff16815260200190815260200160002060009054906101000a900460ff16905092915050565b6000611d16600a612ec9565b9050611d223382612ed7565b6040518060c00160405280838152602001600b8481548110611d6d577f4e487b7100000000000000000000000000000000000000000000000000000000600052603260045260246000fd5b90600052602060002090600602016001018054611d8990615014565b80601f0160208091040260200160405190810160405280929190818152602001828054611db590615014565b8015611e025780601f10611dd757610100808354040283529160200191611e02565b820191906000526020600020905b815481529060010190602001808311611de557829003601f168201915b50505050508152602001600b8481548110611e46577f4e487b7100000000000000000000000000000000000000000000000000000000600052603260045260246000fd5b90600052602060002090600602016002018054611e6290615014565b80601f0160208091040260200160405190810160405280929190818152602001828054611e8e90615014565b8015611edb5780601f10611eb057610100808354040283529160200191611edb565b820191906000526020600020905b815481529060010190602001808311611ebe57829003601f168201915b50505050508152602001600b8481548110611f1f577f4e487b7100000000000000000000000000000000000000000000000000000000600052603260045260246000fd5b9060005260206000209060060201600301548152602001600b8481548110611f70577f4e487b7100000000000000000000000000000000000000000000000000000000600052603260045260246000fd5b9060005260206000209060060201600401548152602001600b8481548110611fc1577f4e487b7100000000000000000000000000000000000000000000000000000000600052603260045260246000fd5b9060005260206000209060060201600501548152506011600083815260200190815260200160002060008201518160000155602082015181600101908051906020019061200f929190613469565b50604082015181600201908051906020019061202c929190613469565b50606082015181600301556080820151816004015560a082015181600501559050506120716040518060600160405280602e81526020016152a2602e91398284612ef5565b80601260003373ffffffffffffffffffffffffffffffffffffffff1673ffffffffffffffffffffffffffffffffffffffff168152602001908152602001600020819055506120bf600a6121a0565b7f4bc303fd457a97b4691b9af582ce71868a3d258638c8d4f8c60988a0f0bfb8cd3382846040516120f293929190614770565b60405180910390a15050565b61219a848484846040516024016121189493929190614874565b6040516020818303038152906040527f8d142cdd000000000000000000000000000000000000000000000000000000007bffffffffffffffffffffffffffffffffffffffffffffffffffffffff19166020820180517bffffffffffffffffffffffffffffffffffffffffffffffffffffffff8381831617835250505050612f94565b50505050565b6001816000016000828254019250508190555050565b60007f01ffc9a7000000000000000000000000000000000000000000000000000000007bffffffffffffffffffffffffffffffffffffffffffffffffffffffff1916827bffffffffffffffffffffffffffffffffffffffffffffffffffffffff1916149050919050565b60008073ffffffffffffffffffffffffffffffffffffffff166002600084815260200190815260200160002060009054906101000a900473ffffffffffffffffffffffffffffffffffffffff1673ffffffffffffffffffffffffffffffffffffffff1614159050919050565b600033905090565b816004600083815260200190815260200160002060006101000a81548173ffffffffffffffffffffffffffffffffffffffff021916908373ffffffffffffffffffffffffffffffffffffffff160217905550808273ffffffffffffffffffffffffffffffffffffffff1661230783610a05565b73ffffffffffffffffffffffffffffffffffffffff167f8c5be1e5ebec7d5bd14f71427d1e84f3dd0314c0f7b2291e5b200ac8c7c3b92560405160405180910390a45050565b600061235882612220565b612397576040517f08c379a000000000000000000000000000000000000000000000000000000000815260040161238e90614ab0565b60405180910390fd5b60006123a283610a05565b90508073ffffffffffffffffffffffffffffffffffffffff168473ffffffffffffffffffffffffffffffffffffffff16148061241157508373ffffffffffffffffffffffffffffffffffffffff166123f9846107e2565b73ffffffffffffffffffffffffffffffffffffffff16145b8061242257506124218185611c76565b5b91505092915050565b8273ffffffffffffffffffffffffffffffffffffffff1661244b82610a05565b73ffffffffffffffffffffffffffffffffffffffff16146124a1576040517f08c379a000000000000000000000000000000000000000000000000000000000815260040161249890614b90565b60405180910390fd5b600073ffffffffffffffffffffffffffffffffffffffff168273ffffffffffffffffffffffffffffffffffffffff161415612511576040517f08c379a000000000000000000000000000000000000000000000000000000000815260040161250890614a50565b60405180910390fd5b61251c838383612fbd565b612527600082612294565b6001600360008573ffffffffffffffffffffffffffffffffffffffff1673ffffffffffffffffffffffffffffffffffffffff16815260200190815260200160002060008282546125779190614f20565b925050819055506001600360008473ffffffffffffffffffffffffffffffffffffffff1673ffffffffffffffffffffffffffffffffffffffff16815260200190815260200160002060008282546125ce9190614e3f565b92505081905550816002600083815260200190815260200160002060006101000a81548173ffffffffffffffffffffffffffffffffffffffff021916908373ffffffffffffffffffffffffffffffffffffffff160217905550808273ffffffffffffffffffffffffffffffffffffffff168473ffffffffffffffffffffffffffffffffffffffff167fddf252ad1be2c89b69c2b068fc378daa952ba7f163c4a11628f55a4df523b3ef60405160405180910390a4505050565b600080600060648461269991906150a3565b90506000606480866126ab9190614e95565b6126b591906150a3565b90508181935093505050915091565b61275c82826040516024016126da929190614982565b6040516020818303038152906040527f9710a9d0000000000000000000000000000000000000000000000000000000007bffffffffffffffffffffffffffffffffffffffffffffffffffffffff19166020820180517bffffffffffffffffffffffffffffffffffffffffffffffffffffffff8381831617835250505050612f94565b5050565b8060098190555060006013600084815260200190815260200160002060009054906101000a900473ffffffffffffffffffffffffffffffffffffffff1690506127ab60095482610ab7565b505050565b8173ffffffffffffffffffffffffffffffffffffffff168373ffffffffffffffffffffffffffffffffffffffff16141561281f576040517f08c379a000000000000000000000000000000000000000000000000000000000815260040161281690614a70565b60405180910390fd5b80600560008573ffffffffffffffffffffffffffffffffffffffff1673ffffffffffffffffffffffffffffffffffffffff16815260200190815260200160002060008473ffffffffffffffffffffffffffffffffffffffff1673ffffffffffffffffffffffffffffffffffffffff16815260200190815260200160002060006101000a81548160ff0219169083151502179055508173ffffffffffffffffffffffffffffffffffffffff168373ffffffffffffffffffffffffffffffffffffffff167f17307eab39ab6107e8899845ad3d59bd9653f200f220920489ca2b5937696c318360405161291091906147c9565b60405180910390a3505050565b61292884848461242b565b61293484848484612fc2565b612973576040517f08c379a000000000000000000000000000000000000000000000000000000000815260040161296a906149f0565b60405180910390fd5b50505050565b606060008214156129c1576040518060400160405280600181526020017f30000000000000000000000000000000000000000000000000000000000000008152509050612b21565b600082905060005b600082146129f35780806129dc90615046565b915050600a826129ec9190614e95565b91506129c9565b60008167ffffffffffffffff811115612a35577f4e487b7100000000000000000000000000000000000000000000000000000000600052604160045260246000fd5b6040519080825280601f01601f191660200182016040528015612a675781602001600182028036833780820191505090505b5090505b60008514612b1a57600182612a809190614f20565b9150600a85612a8f91906150a3565b6030612a9b9190614e3f565b60f81b818381518110612ad7577f4e487b7100000000000000000000000000000000000000000000000000000000600052603260045260246000fd5b60200101907effffffffffffffffffffffffffffffffffffffffffffffffffffffffffffff1916908160001a905350600a85612b139190614e95565b9450612a6b565b8093505050505b919050565b6060600082511415612b4957604051806020016040528060008152509050612cc0565b600060405180606001604052806040815260200161523a6040913990506000600360028551612b789190614e3f565b612b829190614e95565b6004612b8e9190614ec6565b90506000602082612b9f9190614e3f565b67ffffffffffffffff811115612bde577f4e487b7100000000000000000000000000000000000000000000000000000000600052604160045260246000fd5b6040519080825280601f01601f191660200182016040528015612c105781602001600182028036833780820191505090505b509050818152600183018586518101602084015b81831015612c7f576003830192508251603f8160121c168501518253600182019150603f81600c1c168501518253600182019150603f8160061c168501518253600182019150603f8116850151825360018201915050612c24565b600389510660018114612c995760028114612ca957612cb4565b613d3d60f01b6002830352612cb4565b603d60f81b60018303525b50505050508093505050505b919050565b612d6184848484604051602401612cdf94939291906148ce565b6040516020818303038152906040527fd5cf17d0000000000000000000000000000000000000000000000000000000007bffffffffffffffffffffffffffffffffffffffffffffffffffffffff19166020820180517bffffffffffffffffffffffffffffffffffffffffffffffffffffffff8381831617835250505050612f94565b50505050565b60007f000000000000000000000000000000000000000000000000000000000000000073ffffffffffffffffffffffffffffffffffffffff16634000aea07f000000000000000000000000000000000000000000000000000000000000000084866000604051602001612ddb9291906147e4565b6040516020818303038152906040526040518463ffffffff1660e01b8152600401612e0893929190614732565b602060405180830381600087803b158015612e2257600080fd5b505af1158015612e36573d6000803e3d6000fd5b505050506040513d601f19601f82011682018060405250810190612e5a91906137c3565b506000612e7d846000306006600089815260200190815260200160002054613159565b905060016006600086815260200190815260200160002054612e9f9190614e3f565b6006600086815260200190815260200160002081905550612ec08482613195565b91505092915050565b600081600001549050919050565b612ef18282604051806020016040528060008152506131c8565b5050565b612f8f838383604051602401612f0d939291906149b2565b6040516020818303038152906040527f969cdd03000000000000000000000000000000000000000000000000000000007bffffffffffffffffffffffffffffffffffffffffffffffffffffffff19166020820180517bffffffffffffffffffffffffffffffffffffffffffffffffffffffff8381831617835250505050612f94565b505050565b60008151905060006a636f6e736f6c652e6c6f679050602083016000808483855afa5050505050565b505050565b6000612fe38473ffffffffffffffffffffffffffffffffffffffff16613223565b1561314c578373ffffffffffffffffffffffffffffffffffffffff1663150b7a0261300c61228c565b8786866040518563ffffffff1660e01b815260040161302e94939291906146e6565b602060405180830381600087803b15801561304857600080fd5b505af192505050801561307957506040513d601f19601f82011682018060405250810190613076919061387a565b60015b6130fc573d80600081146130a9576040519150601f19603f3d011682016040523d82523d6000602084013e6130ae565b606091505b506000815114156130f4576040517f08c379a00000000000000000000000000000000000000000000000000000000081526004016130eb906149f0565b60405180910390fd5b805181602001fd5b63150b7a0260e01b7bffffffffffffffffffffffffffffffffffffffffffffffffffffffff1916817bffffffffffffffffffffffffffffffffffffffffffffffffffffffff191614915050613151565b600190505b949350505050565b600084848484604051602001613172949392919061480d565b6040516020818303038152906040528051906020012060001c9050949350505050565b600082826040516020016131aa9291906145d8565b60405160208183030381529060405280519060200120905092915050565b6131d28383613236565b6131df6000848484612fc2565b61321e576040517f08c379a0000000000000000000000000000000000000000000000000000000008152600401613215906149f0565b60405180910390fd5b505050565b600080823b905060008111915050919050565b600073ffffffffffffffffffffffffffffffffffffffff168273ffffffffffffffffffffffffffffffffffffffff1614156132a6576040517f08c379a000000000000000000000000000000000000000000000000000000000815260040161329d90614b50565b60405180910390fd5b6132af81612220565b156132ef576040517f08c379a00000000000000000000000000000000000000000000000000000000081526004016132e690614a30565b60405180910390fd5b6132fb60008383612fbd565b6001600360008473ffffffffffffffffffffffffffffffffffffffff1673ffffffffffffffffffffffffffffffffffffffff168152602001908152602001600020600082825461334b9190614e3f565b92505081905550816002600083815260200190815260200160002060006101000a81548173ffffffffffffffffffffffffffffffffffffffff021916908373ffffffffffffffffffffffffffffffffffffffff160217905550808273ffffffffffffffffffffffffffffffffffffffff16600073ffffffffffffffffffffffffffffffffffffffff167fddf252ad1be2c89b69c2b068fc378daa952ba7f163c4a11628f55a4df523b3ef60405160405180910390a45050565b6040518060a0016040528060608152602001606081526020016000815260200160008152602001600081525090565b6040518060c001604052806000815260200160608152602001606081526020016000815260200160008152602001600081525090565b82805461347590615014565b90600052602060002090601f01602090048101928261349757600085556134de565b82601f106134b057805160ff19168380011785556134de565b828001600101855582156134de579182015b828111156134dd5782518255916020019190600101906134c2565b5b5090506134eb91906134ef565b5090565b5b808211156135085760008160009055506001016134f0565b5090565b600061351f61351a84614d82565b614d51565b90508281526020810184848401111561353757600080fd5b613542848285614fd2565b509392505050565b600081359050613559816151a1565b92915050565b60008135905061356e816151b8565b92915050565b600081519050613583816151b8565b92915050565b600081359050613598816151cf565b92915050565b6000813590506135ad816151e6565b92915050565b6000815190506135c2816151e6565b92915050565b600082601f8301126135d957600080fd5b81356135e984826020860161350c565b91505092915050565b600081359050613601816151fd565b92915050565b600081519050613616816151fd565b92915050565b60006020828403121561362e57600080fd5b600061363c8482850161354a565b91505092915050565b6000806040838503121561365857600080fd5b60006136668582860161354a565b92505060206136778582860161354a565b9150509250929050565b60008060006060848603121561369657600080fd5b60006136a48682870161354a565b93505060206136b58682870161354a565b92505060406136c6868287016135f2565b9150509250925092565b600080600080608085870312156136e657600080fd5b60006136f48782880161354a565b94505060206137058782880161354a565b9350506040613716878288016135f2565b925050606085013567ffffffffffffffff81111561373357600080fd5b61373f878288016135c8565b91505092959194509250565b6000806040838503121561375e57600080fd5b600061376c8582860161354a565b925050602061377d8582860161355f565b9150509250929050565b6000806040838503121561379a57600080fd5b60006137a88582860161354a565b92505060206137b9858286016135f2565b9150509250929050565b6000602082840312156137d557600080fd5b60006137e384828501613574565b91505092915050565b6000602082840312156137fe57600080fd5b600061380c84828501613589565b91505092915050565b6000806040838503121561382857600080fd5b600061383685828601613589565b9250506020613847858286016135f2565b9150509250929050565b60006020828403121561386357600080fd5b60006138718482850161359e565b91505092915050565b60006020828403121561388c57600080fd5b600061389a848285016135b3565b91505092915050565b6000602082840312156138b557600080fd5b60006138c3848285016135f2565b91505092915050565b6000602082840312156138de57600080fd5b60006138ec84828501613607565b91505092915050565b6000806040838503121561390857600080fd5b6000613916858286016135f2565b92505060206139278582860161354a565b9150509250929050565b600061393d8383614483565b905092915050565b61394e81614f54565b82525050565b600061395f82614dc2565b6139698185614df0565b93508360208202850161397b85614db2565b8060005b858110156139b757848403895281516139988582613931565b94506139a383614de3565b925060208a0199505060018101905061397f565b50829750879550505050505092915050565b6139d281614f66565b82525050565b6139e181614f72565b82525050565b6139f86139f382614f72565b61508f565b82525050565b6000613a0982614dcd565b613a138185614e01565b9350613a23818560208601614fe1565b613a2c81615190565b840191505092915050565b6000613a4282614dd8565b613a4c8185614e12565b9350613a5c818560208601614fe1565b613a6581615190565b840191505092915050565b6000613a7b82614dd8565b613a858185614e23565b9350613a95818560208601614fe1565b613a9e81615190565b840191505092915050565b6000613ab482614dd8565b613abe8185614e34565b9350613ace818560208601614fe1565b80840191505092915050565b6000613ae7600b83614e34565b91507f202d2d204e465420233a200000000000000000000000000000000000000000006000830152600b82019050919050565b6000613b27603283614e23565b91507f4552433732313a207472616e7366657220746f206e6f6e20455243373231526560008301527f63656976657220696d706c656d656e74657200000000000000000000000000006020830152604082019050919050565b6000613b8d602883614e23565b91507f4572726f723a20626f7373206d757374206861766520485020746f206174746160008301527f636b20626f73732e0000000000000000000000000000000000000000000000006020830152604082019050919050565b6000613bf3601c83614e23565b91507f4552433732313a20746f6b656e20616c7265616479206d696e746564000000006000830152602082019050919050565b6000613c33600e83614e34565b91507f2c20226d61785f76616c7565223a0000000000000000000000000000000000006000830152600e82019050919050565b6000613c73602483614e23565b91507f4552433732313a207472616e7366657220746f20746865207a65726f2061646460008301527f72657373000000000000000000000000000000000000000000000000000000006020830152604082019050919050565b6000613cd9601983614e23565b91507f4552433732313a20617070726f766520746f2063616c6c6572000000000000006000830152602082019050919050565b6000613d19602b83614e23565b91507f4e6f7420656e6f756768204c494e4b202d2066696c6c20636f6e74726163742060008301527f77697468206661756365740000000000000000000000000000000000000000006020830152604082019050919050565b6000613d7f602c83614e23565b91507f4552433732313a206f70657261746f7220717565727920666f72206e6f6e657860008301527f697374656e7420746f6b656e00000000000000000000000000000000000000006020830152604082019050919050565b6000613de5606483614e34565b91507f222c20226465736372697074696f6e223a20225468697320697320616e204e4660008301527f542074686174206c6574732070656f706c6520706c617920696e20746865206760208301527f616d65204d6574617665727365204176656e6765727321222c2022696d61676560408301527f223a2022000000000000000000000000000000000000000000000000000000006060830152606482019050919050565b6000613e97603883614e23565b91507f4552433732313a20617070726f76652063616c6c6572206973206e6f74206f7760008301527f6e6572206e6f7220617070726f76656420666f7220616c6c00000000000000006020830152604082019050919050565b6000613efd602a83614e23565b91507f4552433732313a2062616c616e636520717565727920666f7220746865207a6560008301527f726f2061646472657373000000000000000000000000000000000000000000006020830152604082019050919050565b6000613f63602983614e23565b91507f4552433732313a206f776e657220717565727920666f72206e6f6e657869737460008301527f656e7420746f6b656e00000000000000000000000000000000000000000000006020830152604082019050919050565b6000613fc9602d83614e23565b91507f4572726f723a20636861726163746572206d757374206861766520485020746f60008301527f2061747461636b20626f73732e000000000000000000000000000000000000006020830152604082019050919050565b600061402f600483614e34565b91507f7d205d7d000000000000000000000000000000000000000000000000000000006000830152600482019050919050565b600061406f602083614e23565b91507f4552433732313a206d696e7420746f20746865207a65726f20616464726573736000830152602082019050919050565b60006140af602c83614e23565b91507f4552433732313a20617070726f76656420717565727920666f72206e6f6e657860008301527f697374656e7420746f6b656e00000000000000000000000000000000000000006020830152604082019050919050565b6000614115602983614e23565b91507f4552433732313a207472616e73666572206f6620746f6b656e2074686174206960008301527f73206e6f74206f776e00000000000000000000000000000000000000000000006020830152604082019050919050565b600061417b600a83614e34565b91507f7b226e616d65223a2022000000000000000000000000000000000000000000006000830152600a82019050919050565b60006141bb601f83614e23565b91507f4f6e6c7920565246436f6f7264696e61746f722063616e2066756c66696c6c006000830152602082019050919050565b60006141fb602183614e23565b91507f4552433732313a20617070726f76616c20746f2063757272656e74206f776e6560008301527f72000000000000000000000000000000000000000000000000000000000000006020830152604082019050919050565b6000614261602083614e23565b91507f6f6e6c7920564652432063616e2063616c6c20746869732066756e6374696f6e6000830152602082019050919050565b60006142a1601d83614e34565b91507f646174613a6170706c69636174696f6e2f6a736f6e3b6261736536342c0000006000830152601d82019050919050565b60006142e1603183614e23565b91507f4552433732313a207472616e736665722063616c6c6572206973206e6f74206f60008301527f776e6572206e6f7220617070726f7665640000000000000000000000000000006020830152604082019050919050565b6000614347603d83614e34565b91507f222c202261747472696275746573223a205b207b202274726169745f7479706560008301527f223a20224865616c746820506f696e7473222c202276616c7565223a200000006020830152603d82019050919050565b60006143ad602d83614e34565b91507f7d2c207b202274726169745f74797065223a202241747461636b2044616d616760008301527f65222c202276616c7565223a20000000000000000000000000000000000000006020830152602d82019050919050565b600060a08301600083015184820360008601526144238282613a37565b9150506020830151848203602086015261443d8282613a37565b915050604083015161445260408601826145a3565b50606083015161446560608601826145a3565b50608083015161447860808601826145a3565b508091505092915050565b600060c08301600083015161449b60008601826145a3565b50602083015184820360208601526144b38282613a37565b915050604083015184820360408601526144cd8282613a37565b91505060608301516144e260608601826145a3565b5060808301516144f560808601826145a3565b5060a083015161450860a08601826145a3565b508091505092915050565b600060c08301600083015161452b60008601826145a3565b50602083015184820360208601526145438282613a37565b9150506040830151848203604086015261455d8282613a37565b915050606083015161457260608601826145a3565b50608083015161458560808601826145a3565b5060a083015161459860a08601826145a3565b508091505092915050565b6145ac81614fc8565b82525050565b6145bb81614fc8565b82525050565b6145d26145cd82614fc8565b615099565b82525050565b60006145e482856139e7565b6020820191506145f482846145c1565b6020820191508190509392505050565b600061460f8261416e565b915061461b8289613aa9565b915061462682613ada565b91506146328288613aa9565b915061463d82613dd8565b91506146498287613aa9565b91506146548261433a565b91506146608286613aa9565b915061466b82613c26565b91506146778285613aa9565b9150614682826143a0565b915061468e8284613aa9565b915061469982614022565b9150819050979650505050505050565b60006146b482614294565b91506146c08284613aa9565b915081905092915050565b60006020820190506146e06000830184613945565b92915050565b60006080820190506146fb6000830187613945565b6147086020830186613945565b61471560408301856145b2565b818103606083015261472781846139fe565b905095945050505050565b60006060820190506147476000830186613945565b61475460208301856145b2565b818103604083015261476681846139fe565b9050949350505050565b60006060820190506147856000830186613945565b61479260208301856145b2565b61479f60408301846145b2565b949350505050565b600060208201905081810360008301526147c18184613954565b905092915050565b60006020820190506147de60008301846139c9565b92915050565b60006040820190506147f960008301856139d8565b61480660208301846145b2565b9392505050565b600060808201905061482260008301876139d8565b61482f60208301866145b2565b61483c6040830185613945565b61484960608301846145b2565b95945050505050565b6000602082019050818103600083015261486c8184613a70565b905092915050565b6000608082019050818103600083015261488e8187613a70565b905081810360208301526148a28186613a70565b90506148b160408301856145b2565b81810360608301526148c38184613a70565b905095945050505050565b600060808201905081810360008301526148e88187613a70565b905081810360208301526148fc8186613a70565b905061490b60408301856145b2565b61491860608301846145b2565b95945050505050565b600060a082019050818103600083015261493b8188613a70565b9050818103602083015261494f8187613a70565b905061495e60408301866145b2565b61496b60608301856145b2565b61497860808301846145b2565b9695505050505050565b6000604082019050818103600083015261499c8185613a70565b90506149ab60208301846145b2565b9392505050565b600060608201905081810360008301526149cc8186613a70565b90506149db60208301856145b2565b6149e860408301846145b2565b949350505050565b60006020820190508181036000830152614a0981613b1a565b9050919050565b60006020820190508181036000830152614a2981613b80565b9050919050565b60006020820190508181036000830152614a4981613be6565b9050919050565b60006020820190508181036000830152614a6981613c66565b9050919050565b60006020820190508181036000830152614a8981613ccc565b9050919050565b60006020820190508181036000830152614aa981613d0c565b9050919050565b60006020820190508181036000830152614ac981613d72565b9050919050565b60006020820190508181036000830152614ae981613e8a565b9050919050565b60006020820190508181036000830152614b0981613ef0565b9050919050565b60006020820190508181036000830152614b2981613f56565b9050919050565b60006020820190508181036000830152614b4981613fbc565b9050919050565b60006020820190508181036000830152614b6981614062565b9050919050565b60006020820190508181036000830152614b89816140a2565b9050919050565b60006020820190508181036000830152614ba981614108565b9050919050565b60006020820190508181036000830152614bc9816141ae565b9050919050565b60006020820190508181036000830152614be9816141ee565b9050919050565b60006020820190508181036000830152614c0981614254565b9050919050565b60006020820190508181036000830152614c29816142d4565b9050919050565b60006020820190508181036000830152614c4a8184614406565b905092915050565b60006020820190508181036000830152614c6c8184614513565b905092915050565b6000602082019050614c8960008301846145b2565b92915050565b600060c082019050614ca460008301896145b2565b8181036020830152614cb68188613a70565b90508181036040830152614cca8187613a70565b9050614cd960608301866145b2565b614ce660808301856145b2565b614cf360a08301846145b2565b979650505050505050565b600060a082019050614d1360008301886145b2565b614d2060208301876145b2565b614d2d6040830186613945565b614d3a60608301856145b2565b614d4760808301846145b2565b9695505050505050565b6000604051905081810181811067ffffffffffffffff82111715614d7857614d77615161565b5b8060405250919050565b600067ffffffffffffffff821115614d9d57614d9c615161565b5b601f19601f8301169050602081019050919050565b6000819050602082019050919050565b600081519050919050565b600081519050919050565b600081519050919050565b6000602082019050919050565b600082825260208201905092915050565b600082825260208201905092915050565b600082825260208201905092915050565b600082825260208201905092915050565b600081905092915050565b6000614e4a82614fc8565b9150614e5583614fc8565b9250827fffffffffffffffffffffffffffffffffffffffffffffffffffffffffffffffff03821115614e8a57614e896150d4565b5b828201905092915050565b6000614ea082614fc8565b9150614eab83614fc8565b925082614ebb57614eba615103565b5b828204905092915050565b6000614ed182614fc8565b9150614edc83614fc8565b9250817fffffffffffffffffffffffffffffffffffffffffffffffffffffffffffffffff0483118215151615614f1557614f146150d4565b5b828202905092915050565b6000614f2b82614fc8565b9150614f3683614fc8565b925082821015614f4957614f486150d4565b5b828203905092915050565b6000614f5f82614fa8565b9050919050565b60008115159050919050565b6000819050919050565b60007fffffffff0000000000000000000000000000000000000000000000000000000082169050919050565b600073ffffffffffffffffffffffffffffffffffffffff82169050919050565b6000819050919050565b82818337600083830152505050565b60005b83811015614fff578082015181840152602081019050614fe4565b8381111561500e576000848401525b50505050565b6000600282049050600182168061502c57607f821691505b602082108114156150405761503f615132565b5b50919050565b600061505182614fc8565b91507fffffffffffffffffffffffffffffffffffffffffffffffffffffffffffffffff821415615084576150836150d4565b5b600182019050919050565b6000819050919050565b6000819050919050565b60006150ae82614fc8565b91506150b983614fc8565b9250826150c9576150c8615103565b5b828206905092915050565b7f4e487b7100000000000000000000000000000000000000000000000000000000600052601160045260246000fd5b7f4e487b7100000000000000000000000000000000000000000000000000000000600052601260045260246000fd5b7f4e487b7100000000000000000000000000000000000000000000000000000000600052602260045260246000fd5b7f4e487b7100000000000000000000000000000000000000000000000000000000600052604160045260246000fd5b6000601f19601f8301169050919050565b6151aa81614f54565b81146151b557600080fd5b50565b6151c181614f66565b81146151cc57600080fd5b50565b6151d881614f72565b81146151e357600080fd5b50565b6151ef81614f7c565b81146151fa57600080fd5b50565b61520681614fc8565b811461521157600080fd5b5056fe506c617965722061747461636b656420626f73732e204e657720626f73732068703a2025734142434445464748494a4b4c4d4e4f505152535455565758595a6162636465666768696a6b6c6d6e6f707172737475767778797a303132333435363738392b2f426f73732061747461636b656420706c617965722e204e657720706c617965722068703a2025730a4d696e746564204e465420772f20746f6b656e496420257320616e6420636861726163746572496e6465782025730a506c6179657220772f206368617261637465722025732061626f757420746f2061747461636b2e2048617320257320485020616e64202573204144a26469706673582212209b640430831b90c1c0143b250373cb63ba65caecb8c20391ffcce05d378a9b6a64736f6c63430008000033446f6e6520696e697469616c697a696e6720257320772f2048502025732c20696d67202573446f6e6520696e697469616c697a696e6720626f737320257320772f2048502025732c20696d67202573",
  "linkReferences": {},
  "deployedLinkReferences": {}
}