{
  "_format": "hh-sol-artifact-1",
  "contractName": "NftGame",
  "sourceName": "contracts/NftGame.sol",
  "abi": [
    {
      "inputs": [
        {
          "internalType": "string[]",
          "name": "characterNames",
          "type": "string[]"
        },
        {
          "internalType": "string[]",
          "name": "characterImageURIs",
          "type": "string[]"
        },
        {
          "internalType": "uint256[]",
          "name": "characterHp",
          "type": "uint256[]"
        },
        {
          "internalType": "uint256[]",
          "name": "characterAttackDmg",
          "type": "uint256[]"
        },
        {
          "internalType": "string",
          "name": "bossName",
          "type": "string"
        },
        {
          "internalType": "string",
          "name": "bossImageURI",
          "type": "string"
        },
        {
          "internalType": "uint256",
          "name": "bossHp",
          "type": "uint256"
        },
        {
          "internalType": "uint256",
          "name": "bossAttackDamage",
          "type": "uint256"
        }
      ],
      "stateMutability": "nonpayable",
      "type": "constructor"
    },
    {
      "anonymous": false,
      "inputs": [
        {
          "indexed": true,
          "internalType": "address",
          "name": "owner",
          "type": "address"
        },
        {
          "indexed": true,
          "internalType": "address",
          "name": "approved",
          "type": "address"
        },
        {
          "indexed": true,
          "internalType": "uint256",
          "name": "tokenId",
          "type": "uint256"
        }
      ],
      "name": "Approval",
      "type": "event"
    },
    {
      "anonymous": false,
      "inputs": [
        {
          "indexed": true,
          "internalType": "address",
          "name": "owner",
          "type": "address"
        },
        {
          "indexed": true,
          "internalType": "address",
          "name": "operator",
          "type": "address"
        },
        {
          "indexed": false,
          "internalType": "bool",
          "name": "approved",
          "type": "bool"
        }
      ],
      "name": "ApprovalForAll",
      "type": "event"
    },
    {
      "anonymous": false,
      "inputs": [
        {
          "indexed": false,
          "internalType": "uint256",
          "name": "newBossHp",
          "type": "uint256"
        },
        {
          "indexed": false,
          "internalType": "uint256",
          "name": "newPlayerHp",
          "type": "uint256"
        },
        {
          "indexed": false,
          "internalType": "address",
          "name": "playerAddress",
          "type": "address"
        },
        {
          "indexed": false,
          "internalType": "uint256",
          "name": "bossAttackDamage",
          "type": "uint256"
        },
        {
          "indexed": false,
          "internalType": "uint256",
          "name": "playerAttackDamage",
          "type": "uint256"
        }
      ],
      "name": "AttackComplete",
      "type": "event"
    },
    {
      "anonymous": false,
      "inputs": [
        {
          "indexed": false,
          "internalType": "address",
          "name": "sender",
          "type": "address"
        },
        {
          "indexed": false,
          "internalType": "uint256",
          "name": "tokenId",
          "type": "uint256"
        },
        {
          "indexed": false,
          "internalType": "uint256",
          "name": "characterIndex",
          "type": "uint256"
        }
      ],
      "name": "CharacterNFTMinted",
      "type": "event"
    },
    {
      "anonymous": false,
      "inputs": [
        {
          "indexed": true,
          "internalType": "address",
          "name": "from",
          "type": "address"
        },
        {
          "indexed": true,
          "internalType": "address",
          "name": "to",
          "type": "address"
        },
        {
          "indexed": true,
          "internalType": "uint256",
          "name": "tokenId",
          "type": "uint256"
        }
      ],
      "name": "Transfer",
      "type": "event"
    },
    {
      "inputs": [
        {
          "internalType": "address",
          "name": "to",
          "type": "address"
        },
        {
          "internalType": "uint256",
          "name": "tokenId",
          "type": "uint256"
        }
      ],
      "name": "approve",
      "outputs": [],
      "stateMutability": "nonpayable",
      "type": "function"
    },
    {
      "inputs": [],
      "name": "attackBoss",
      "outputs": [],
      "stateMutability": "nonpayable",
      "type": "function"
    },
    {
      "inputs": [
        {
          "internalType": "uint256",
          "name": "random",
          "type": "uint256"
        },
        {
          "internalType": "address",
          "name": "playerAddr",
          "type": "address"
        }
      ],
      "name": "attackRNGVerdict",
      "outputs": [],
      "stateMutability": "nonpayable",
      "type": "function"
    },
    {
      "inputs": [
        {
          "internalType": "address",
          "name": "owner",
          "type": "address"
        }
      ],
      "name": "balanceOf",
      "outputs": [
        {
          "internalType": "uint256",
          "name": "",
          "type": "uint256"
        }
      ],
      "stateMutability": "view",
      "type": "function"
    },
    {
      "inputs": [],
      "name": "bigBoss",
      "outputs": [
        {
          "internalType": "string",
          "name": "name",
          "type": "string"
        },
        {
          "internalType": "string",
          "name": "imageURI",
          "type": "string"
        },
        {
          "internalType": "uint256",
          "name": "hp",
          "type": "uint256"
        },
        {
          "internalType": "uint256",
          "name": "maxHp",
          "type": "uint256"
        },
        {
          "internalType": "uint256",
          "name": "attackDamage",
          "type": "uint256"
        }
      ],
      "stateMutability": "view",
      "type": "function"
    },
    {
      "inputs": [],
      "name": "checkIfUserHasNFT",
      "outputs": [
        {
          "components": [
            {
              "internalType": "uint256",
              "name": "characterIndex",
              "type": "uint256"
            },
            {
              "internalType": "string",
              "name": "name",
              "type": "string"
            },
            {
              "internalType": "string",
              "name": "imageURI",
              "type": "string"
            },
            {
              "internalType": "uint256",
              "name": "hp",
              "type": "uint256"
            },
            {
              "internalType": "uint256",
              "name": "maxHp",
              "type": "uint256"
            },
            {
              "internalType": "uint256",
              "name": "attackDamage",
              "type": "uint256"
            }
          ],
          "internalType": "struct NftGame.CharacterAttributes",
          "name": "",
          "type": "tuple"
        }
      ],
      "stateMutability": "view",
      "type": "function"
    },
    {
      "inputs": [
        {
          "internalType": "uint256",
          "name": "playerAttackDamage",
          "type": "uint256"
        },
        {
          "internalType": "uint256",
          "name": "playerCritChance",
          "type": "uint256"
        },
        {
          "internalType": "uint256",
          "name": "playerHitChance",
          "type": "uint256"
        },
        {
          "internalType": "uint256",
          "name": "critValue",
          "type": "uint256"
        },
        {
          "internalType": "uint256",
          "name": "accuracy",
          "type": "uint256"
        }
      ],
      "name": "determineAttackValues",
      "outputs": [
        {
          "internalType": "uint256",
          "name": "",
          "type": "uint256"
        }
      ],
      "stateMutability": "view",
      "type": "function"
    },
    {
      "inputs": [],
      "name": "getAllDefaultCharacters",
      "outputs": [
        {
          "components": [
            {
              "internalType": "uint256",
              "name": "characterIndex",
              "type": "uint256"
            },
            {
              "internalType": "string",
              "name": "name",
              "type": "string"
            },
            {
              "internalType": "string",
              "name": "imageURI",
              "type": "string"
            },
            {
              "internalType": "uint256",
              "name": "hp",
              "type": "uint256"
            },
            {
              "internalType": "uint256",
              "name": "maxHp",
              "type": "uint256"
            },
            {
              "internalType": "uint256",
              "name": "attackDamage",
              "type": "uint256"
            }
          ],
          "internalType": "struct NftGame.CharacterAttributes[]",
          "name": "",
          "type": "tuple[]"
        }
      ],
      "stateMutability": "view",
      "type": "function"
    },
    {
      "inputs": [
        {
          "internalType": "uint256",
          "name": "tokenId",
          "type": "uint256"
        }
      ],
      "name": "getApproved",
      "outputs": [
        {
          "internalType": "address",
          "name": "",
          "type": "address"
        }
      ],
      "stateMutability": "view",
      "type": "function"
    },
    {
      "inputs": [],
      "name": "getBigBoss",
      "outputs": [
        {
          "components": [
            {
              "internalType": "string",
              "name": "name",
              "type": "string"
            },
            {
              "internalType": "string",
              "name": "imageURI",
              "type": "string"
            },
            {
              "internalType": "uint256",
              "name": "hp",
              "type": "uint256"
            },
            {
              "internalType": "uint256",
              "name": "maxHp",
              "type": "uint256"
            },
            {
              "internalType": "uint256",
              "name": "attackDamage",
              "type": "uint256"
            }
          ],
          "internalType": "struct NftGame.BigBoss",
          "name": "",
          "type": "tuple"
        }
      ],
      "stateMutability": "view",
      "type": "function"
    },
    {
      "inputs": [],
      "name": "getRandomNumber",
      "outputs": [],
      "stateMutability": "nonpayable",
      "type": "function"
    },
    {
      "inputs": [
        {
          "internalType": "address",
          "name": "owner",
          "type": "address"
        },
        {
          "internalType": "address",
          "name": "operator",
          "type": "address"
        }
      ],
      "name": "isApprovedForAll",
      "outputs": [
        {
          "internalType": "bool",
          "name": "",
          "type": "bool"
        }
      ],
      "stateMutability": "view",
      "type": "function"
    },
    {
      "inputs": [
        {
          "internalType": "uint256",
          "name": "_characterIndex",
          "type": "uint256"
        }
      ],
      "name": "mintCharacterNFT",
      "outputs": [],
      "stateMutability": "nonpayable",
      "type": "function"
    },
    {
      "inputs": [],
      "name": "name",
      "outputs": [
        {
          "internalType": "string",
          "name": "",
          "type": "string"
        }
      ],
      "stateMutability": "view",
      "type": "function"
    },
    {
      "inputs": [
        {
          "internalType": "uint256",
          "name": "",
          "type": "uint256"
        }
      ],
      "name": "nftHolderAttributes",
      "outputs": [
        {
          "internalType": "uint256",
          "name": "characterIndex",
          "type": "uint256"
        },
        {
          "internalType": "string",
          "name": "name",
          "type": "string"
        },
        {
          "internalType": "string",
          "name": "imageURI",
          "type": "string"
        },
        {
          "internalType": "uint256",
          "name": "hp",
          "type": "uint256"
        },
        {
          "internalType": "uint256",
          "name": "maxHp",
          "type": "uint256"
        },
        {
          "internalType": "uint256",
          "name": "attackDamage",
          "type": "uint256"
        }
      ],
      "stateMutability": "view",
      "type": "function"
    },
    {
      "inputs": [
        {
          "internalType": "address",
          "name": "",
          "type": "address"
        }
      ],
      "name": "nftHolders",
      "outputs": [
        {
          "internalType": "uint256",
          "name": "",
          "type": "uint256"
        }
      ],
      "stateMutability": "view",
      "type": "function"
    },
    {
      "inputs": [
        {
          "internalType": "uint256",
          "name": "tokenId",
          "type": "uint256"
        }
      ],
      "name": "ownerOf",
      "outputs": [
        {
          "internalType": "address",
          "name": "",
          "type": "address"
        }
      ],
      "stateMutability": "view",
      "type": "function"
    },
    {
      "inputs": [],
      "name": "randomResult",
      "outputs": [
        {
          "internalType": "uint256",
          "name": "",
          "type": "uint256"
        }
      ],
      "stateMutability": "view",
      "type": "function"
    },
    {
      "inputs": [
        {
          "internalType": "bytes32",
          "name": "requestId",
          "type": "bytes32"
        },
        {
          "internalType": "uint256",
          "name": "randomness",
          "type": "uint256"
        }
      ],
      "name": "rawFulfillRandomness",
      "outputs": [],
      "stateMutability": "nonpayable",
      "type": "function"
    },
    {
      "inputs": [
        {
          "internalType": "address",
          "name": "from",
          "type": "address"
        },
        {
          "internalType": "address",
          "name": "to",
          "type": "address"
        },
        {
          "internalType": "uint256",
          "name": "tokenId",
          "type": "uint256"
        }
      ],
      "name": "safeTransferFrom",
      "outputs": [],
      "stateMutability": "nonpayable",
      "type": "function"
    },
    {
      "inputs": [
        {
          "internalType": "address",
          "name": "from",
          "type": "address"
        },
        {
          "internalType": "address",
          "name": "to",
          "type": "address"
        },
        {
          "internalType": "uint256",
          "name": "tokenId",
          "type": "uint256"
        },
        {
          "internalType": "bytes",
          "name": "_data",
          "type": "bytes"
        }
      ],
      "name": "safeTransferFrom",
      "outputs": [],
      "stateMutability": "nonpayable",
      "type": "function"
    },
    {
      "inputs": [
        {
          "internalType": "address",
          "name": "operator",
          "type": "address"
        },
        {
          "internalType": "bool",
          "name": "approved",
          "type": "bool"
        }
      ],
      "name": "setApprovalForAll",
      "outputs": [],
      "stateMutability": "nonpayable",
      "type": "function"
    },
    {
      "inputs": [
        {
          "internalType": "bytes4",
          "name": "interfaceId",
          "type": "bytes4"
        }
      ],
      "name": "supportsInterface",
      "outputs": [
        {
          "internalType": "bool",
          "name": "",
          "type": "bool"
        }
      ],
      "stateMutability": "view",
      "type": "function"
    },
    {
      "inputs": [],
      "name": "symbol",
      "outputs": [
        {
          "internalType": "string",
          "name": "",
          "type": "string"
        }
      ],
      "stateMutability": "view",
      "type": "function"
    },
    {
      "inputs": [
        {
          "internalType": "uint256",
          "name": "_tokenId",
          "type": "uint256"
        }
      ],
      "name": "tokenURI",
      "outputs": [
        {
          "internalType": "string",
          "name": "",
          "type": "string"
        }
      ],
      "stateMutability": "view",
      "type": "function"
    },
    {
      "inputs": [
        {
          "internalType": "address",
          "name": "from",
          "type": "address"
        },
        {
          "internalType": "address",
          "name": "to",
          "type": "address"
        },
        {
          "internalType": "uint256",
          "name": "tokenId",
          "type": "uint256"
        }
      ],
      "name": "transferFrom",
      "outputs": [],
      "stateMutability": "nonpayable",
      "type": "function"
    },
    {
      "inputs": [
        {
          "internalType": "bytes32",
          "name": "",
          "type": "bytes32"
        }
      ],
      "name": "vrfRequestIdToAddress",
      "outputs": [
        {
          "internalType": "address",
          "name": "",
          "type": "address"
        }
      ],
      "stateMutability": "view",
      "type": "function"
    }
  ],
  "bytecode": "0x60c06040523480156200001157600080fd5b5060405162006a6b38038062006a6b833981810160405281019062000037919062000b2d565b73b3dccb4cf7a26f6cf6b120cf5a73875b7bbc655b7301be23585060835e02b77ef475b0cc51aa1e07096040518060400160405280600681526020017f4865726f657300000000000000000000000000000000000000000000000000008152506040518060400160405280600481526020017f4845524f000000000000000000000000000000000000000000000000000000008152508160009080519060200190620000e5929190620008c0565b508060019080519060200190620000fe929190620008c0565b5050508173ffffffffffffffffffffffffffffffffffffffff1660a08173ffffffffffffffffffffffffffffffffffffffff1660601b815250508073ffffffffffffffffffffffffffffffffffffffff1660808173ffffffffffffffffffffffffffffffffffffffff1660601b8152505050507f2ed0feb3e7fd2022120aa84fab1945545a9f2ffc9076fd6156fa96eaff4c131160001b60078190555067016345785d8a00006008819055506040518060a0016040528085815260200184815260200183815260200183815260200182815250600c6000820151816000019080519060200190620001f1929190620008c0565b50602082015181600101908051906020019062000210929190620008c0565b50604082015181600201556060820151816003015560808201518160040155905050620003936040518060600160405280602a815260200162006a41602a9139600c6000018054620002629062000eb8565b80601f0160208091040260200160405190810160405280929190818152602001828054620002909062000eb8565b8015620002e15780601f10620002b557610100808354040283529160200191620002e1565b820191906000526020600020905b815481529060010190602001808311620002c357829003601f168201915b5050505050600c60020154600c6001018054620002fe9062000eb8565b80601f01602080910402602001604051908101604052809291908181526020018280546200032c9062000eb8565b80156200037d5780601f1062000351576101008083540402835291602001916200037d565b820191906000526020600020905b8154815290600101906020018083116200035f57829003601f168201915b5050505050620007d560201b6200248f1760201c565b60005b8851811015620007af57600b6040518060c001604052808381526020018b8481518110620003ed577f4e487b7100000000000000000000000000000000000000000000000000000000600052603260045260246000fd5b602002602001015181526020018a848151811062000434577f4e487b7100000000000000000000000000000000000000000000000000000000600052603260045260246000fd5b602002602001015181526020018984815181106200047b577f4e487b7100000000000000000000000000000000000000000000000000000000600052603260045260246000fd5b60200260200101518152602001898481518110620004c2577f4e487b7100000000000000000000000000000000000000000000000000000000600052603260045260246000fd5b6020026020010151815260200188848151811062000509577f4e487b7100000000000000000000000000000000000000000000000000000000600052603260045260246000fd5b6020026020010151815250908060018154018082558091505060019003906000526020600020906006020160009091909190915060008201518160000155602082015181600101908051906020019062000565929190620008c0565b50604082015181600201908051906020019062000584929190620008c0565b50606082015181600301556080820151816004015560a0820151816005015550506000600b8281548110620005e2577f4e487b7100000000000000000000000000000000000000000000000000000000600052603260045260246000fd5b90600052602060002090600602016040518060c001604052908160008201548152602001600182018054620006179062000eb8565b80601f0160208091040260200160405190810160405280929190818152602001828054620006459062000eb8565b8015620006965780601f106200066a5761010080835404028352916020019162000696565b820191906000526020600020905b8154815290600101906020018083116200067857829003601f168201915b50505050508152602001600282018054620006b19062000eb8565b80601f0160208091040260200160405190810160405280929190818152602001828054620006df9062000eb8565b8015620007305780601f10620007045761010080835404028352916020019162000730565b820191906000526020600020905b8154815290600101906020018083116200071257829003601f168201915b50505050508152602001600382015481526020016004820154815260200160058201548152505090506200079760405180606001604052806025815260200162006a1c60259139826020015183606001518460400151620007d560201b6200248f1760201c565b50600181620007a7919062000e1b565b905062000396565b50620007c7600a6200088160201b620025311760201c565b505050505050505062000fa6565b6200087b84848484604051602401620007f2949392919062000cd8565b6040516020818303038152906040527f8d142cdd000000000000000000000000000000000000000000000000000000007bffffffffffffffffffffffffffffffffffffffffffffffffffffffff19166020820180517bffffffffffffffffffffffffffffffffffffffffffffffffffffffff83818316178352505050506200089760201b60201c565b50505050565b6001816000016000828254019250508190555050565b60008151905060006a636f6e736f6c652e6c6f679050602083016000808483855afa5050505050565b828054620008ce9062000eb8565b90600052602060002090601f016020900481019282620008f257600085556200093e565b82601f106200090d57805160ff19168380011785556200093e565b828001600101855582156200093e579182015b828111156200093d57825182559160200191906001019062000920565b5b5090506200094d919062000951565b5090565b5b808211156200096c57600081600090555060010162000952565b5090565b600062000987620009818462000d6e565b62000d3a565b9050808382526020820190508260005b85811015620009cb5781518501620009b0888262000ae9565b84526020840193506020830192505060018101905062000997565b5050509392505050565b6000620009ec620009e68462000d9d565b62000d3a565b9050808382526020820190508285602086028201111562000a0c57600080fd5b60005b8581101562000a40578162000a25888262000b16565b84526020840193506020830192505060018101905062000a0f565b5050509392505050565b600062000a6162000a5b8462000dcc565b62000d3a565b90508281526020810184848401111562000a7a57600080fd5b62000a8784828562000e82565b509392505050565b600082601f83011262000aa157600080fd5b815162000ab384826020860162000970565b91505092915050565b600082601f83011262000ace57600080fd5b815162000ae0848260208601620009d5565b91505092915050565b600082601f83011262000afb57600080fd5b815162000b0d84826020860162000a4a565b91505092915050565b60008151905062000b278162000f8c565b92915050565b600080600080600080600080610100898b03121562000b4b57600080fd5b600089015167ffffffffffffffff81111562000b6657600080fd5b62000b748b828c0162000a8f565b985050602089015167ffffffffffffffff81111562000b9257600080fd5b62000ba08b828c0162000a8f565b975050604089015167ffffffffffffffff81111562000bbe57600080fd5b62000bcc8b828c0162000abc565b965050606089015167ffffffffffffffff81111562000bea57600080fd5b62000bf88b828c0162000abc565b955050608089015167ffffffffffffffff81111562000c1657600080fd5b62000c248b828c0162000ae9565b94505060a089015167ffffffffffffffff81111562000c4257600080fd5b62000c508b828c0162000ae9565b93505060c062000c638b828c0162000b16565b92505060e062000c768b828c0162000b16565b9150509295985092959890939650565b600062000c938262000dff565b62000c9f818562000e0a565b935062000cb181856020860162000e82565b62000cbc8162000f7b565b840191505092915050565b62000cd28162000e78565b82525050565b6000608082019050818103600083015262000cf4818762000c86565b9050818103602083015262000d0a818662000c86565b905062000d1b604083018562000cc7565b818103606083015262000d2f818462000c86565b905095945050505050565b6000604051905081810181811067ffffffffffffffff8211171562000d645762000d6362000f4c565b5b8060405250919050565b600067ffffffffffffffff82111562000d8c5762000d8b62000f4c565b5b602082029050602081019050919050565b600067ffffffffffffffff82111562000dbb5762000dba62000f4c565b5b602082029050602081019050919050565b600067ffffffffffffffff82111562000dea5762000de962000f4c565b5b601f19601f8301169050602081019050919050565b600081519050919050565b600082825260208201905092915050565b600062000e288262000e78565b915062000e358362000e78565b9250827fffffffffffffffffffffffffffffffffffffffffffffffffffffffffffffffff0382111562000e6d5762000e6c62000eee565b5b828201905092915050565b6000819050919050565b60005b8381101562000ea257808201518184015260208101905062000e85565b8381111562000eb2576000848401525b50505050565b6000600282049050600182168062000ed157607f821691505b6020821081141562000ee85762000ee762000f1d565b5b50919050565b7f4e487b7100000000000000000000000000000000000000000000000000000000600052601160045260246000fd5b7f4e487b7100000000000000000000000000000000000000000000000000000000600052602260045260246000fd5b7f4e487b7100000000000000000000000000000000000000000000000000000000600052604160045260246000fd5b6000601f19601f8301169050919050565b62000f978162000e78565b811462000fa357600080fd5b50565b60805160601c60a05160601c615a3c62000fe0600039600081816111690152613182015260008181611eb801526131460152615a3c6000f3fe608060405234801561001057600080fd5b50600436106101a95760003560e01c806394985ddd116100f9578063c87b56dd11610097578063d4f24c5b11610071578063d4f24c5b146104fd578063dbdff2c114610507578063e985e9c514610511578063f8b81ef714610541576101a9565b8063c87b56dd1461047f578063c8cf27f4146104af578063cc2abc28146104cd576101a9565b8063a22cb465116100d3578063a22cb46514610407578063a9c3267914610423578063b88d4fde14610445578063b953084e14610461576101a9565b806394985ddd1461039857806395d89b41146103b457806398da4c95146103d2576101a9565b80632879ff06116101665780636352211e116101405780636352211e146102ec5780636670d0b51461031c57806370a08231146103385780637df124a114610368576101a9565b80632879ff061461028257806342619f66146102b257806342842e0e146102d0576101a9565b806301ffc9a7146101ae5780630665f961146101de57806306fdde03146101fc578063081812fc1461021a578063095ea7b31461024a57806323b872dd14610266575b600080fd5b6101c860048036038101906101c39190613c2c565b61055d565b6040516101d59190614eaf565b60405180910390f35b6101e661063f565b6040516101f39190615316565b60405180910390f35b61020461079b565b6040516102119190614f38565b60405180910390f35b610234600480360381019061022f9190613c7e565b61082d565b6040516102419190614db1565b60405180910390f35b610264600480360381019061025f9190613b62565b6108b2565b005b610280600480360381019061027b9190613a5c565b6109ca565b005b61029c60048036038101906102979190613d0c565b610a2a565b6040516102a9919061535a565b60405180910390f35b6102ba610ae9565b6040516102c7919061535a565b60405180910390f35b6102ea60048036038101906102e59190613a5c565b610aef565b005b61030660048036038101906103019190613c7e565b610b0f565b6040516103139190614db1565b60405180910390f35b61033660048036038101906103319190613cd0565b610bc1565b005b610352600480360381019061034d91906139f7565b611097565b60405161035f919061535a565b60405180910390f35b610382600480360381019061037d91906139f7565b61114f565b60405161038f919061535a565b60405180910390f35b6103b260048036038101906103ad9190613bf0565b611167565b005b6103bc611203565b6040516103c99190614f38565b60405180910390f35b6103ec60048036038101906103e79190613c7e565b611295565b6040516103fe96959493929190615375565b60405180910390f35b610421600480360381019061041c9190613b26565b6113e1565b005b61042b6113f7565b60405161043c959493929190615007565b60405180910390f35b61045f600480360381019061045a9190613aab565b61152b565b005b61046961158d565b6040516104769190614e8d565b60405180910390f35b61049960048036038101906104949190613c7e565b611738565b6040516104a69190614f38565b60405180910390f35b6104b7611953565b6040516104c49190615338565b60405180910390f35b6104e760048036038101906104e29190613bc7565b611b2b565b6040516104f49190614db1565b60405180910390f35b610505611b5e565b005b61050f611eb3565b005b61052b60048036038101906105269190613a20565b612007565b6040516105389190614eaf565b60405180910390f35b61055b60048036038101906105569190613c7e565b61209b565b005b60007f80ac58cd000000000000000000000000000000000000000000000000000000007bffffffffffffffffffffffffffffffffffffffffffffffffffffffff1916827bffffffffffffffffffffffffffffffffffffffffffffffffffffffff1916148061062857507f5b5e139f000000000000000000000000000000000000000000000000000000007bffffffffffffffffffffffffffffffffffffffffffffffffffffffff1916827bffffffffffffffffffffffffffffffffffffffffffffffffffffffff1916145b80610638575061063782612547565b5b9050919050565b6106476137df565b600c6040518060a00160405290816000820180546106649061570f565b80601f01602080910402602001604051908101604052809291908181526020018280546106909061570f565b80156106dd5780601f106106b2576101008083540402835291602001916106dd565b820191906000526020600020905b8154815290600101906020018083116106c057829003601f168201915b505050505081526020016001820180546106f69061570f565b80601f01602080910402602001604051908101604052809291908181526020018280546107229061570f565b801561076f5780601f106107445761010080835404028352916020019161076f565b820191906000526020600020905b81548152906001019060200180831161075257829003601f168201915b505050505081526020016002820154815260200160038201548152602001600482015481525050905090565b6060600080546107aa9061570f565b80601f01602080910402602001604051908101604052809291908181526020018280546107d69061570f565b80156108235780601f106107f857610100808354040283529160200191610823565b820191906000526020600020905b81548152906001019060200180831161080657829003601f168201915b5050505050905090565b6000610838826125b1565b610877576040517f08c379a000000000000000000000000000000000000000000000000000000000815260040161086e90615256565b60405180910390fd5b6004600083815260200190815260200160002060009054906101000a900473ffffffffffffffffffffffffffffffffffffffff169050919050565b60006108bd82610b0f565b90508073ffffffffffffffffffffffffffffffffffffffff168373ffffffffffffffffffffffffffffffffffffffff16141561092e576040517f08c379a0000000000000000000000000000000000000000000000000000000008152600401610925906152b6565b60405180910390fd5b8073ffffffffffffffffffffffffffffffffffffffff1661094d61261d565b73ffffffffffffffffffffffffffffffffffffffff16148061097c575061097b8161097661261d565b612007565b5b6109bb576040517f08c379a00000000000000000000000000000000000000000000000000000000081526004016109b2906151b6565b60405180910390fd5b6109c58383612625565b505050565b6109db6109d561261d565b826126de565b610a1a576040517f08c379a0000000000000000000000000000000000000000000000000000000008152600401610a11906152f6565b60405180910390fd5b610a258383836127bc565b505050565b600073b3dccb4cf7a26f6cf6b120cf5a73875b7bbc655b73ffffffffffffffffffffffffffffffffffffffff163373ffffffffffffffffffffffffffffffffffffffff1614610aae576040517f08c379a0000000000000000000000000000000000000000000000000000000008152600401610aa5906152d6565b60405180910390fd5b6000838611610acb57600287610ac491906155c1565b9050610acf565b8690505b82851115610adc57600090505b8091505095945050505050565b60095481565b610b0a8383836040518060200160405280600081525061152b565b505050565b6000806002600084815260200190815260200160002060009054906101000a900473ffffffffffffffffffffffffffffffffffffffff169050600073ffffffffffffffffffffffffffffffffffffffff168173ffffffffffffffffffffffffffffffffffffffff161415610bb8576040517f08c379a0000000000000000000000000000000000000000000000000000000008152600401610baf906151f6565b60405180910390fd5b80915050919050565b73b3dccb4cf7a26f6cf6b120cf5a73875b7bbc655b73ffffffffffffffffffffffffffffffffffffffff163373ffffffffffffffffffffffffffffffffffffffff1614610c43576040517f08c379a0000000000000000000000000000000000000000000000000000000008152600401610c3a906152d6565b60405180910390fd5b6000601260008373ffffffffffffffffffffffffffffffffffffffff1673ffffffffffffffffffffffffffffffffffffffff1681526020019081526020016000205490506000601160008381526020019081526020016000209050600080600080610cad88612a18565b9350935093509350600080604051602001610cc790614c81565b6040516020818303038152906040528051906020012087600101604051602001610cf19190614c55565b604051602081830303815290604052805190602001201415610d2757610d208760050154878660286046610a2a565b9150610f52565b604051602001610d3690614c96565b6040516020818303038152906040528051906020012087600101604051602001610d609190614c55565b604051602081830303815290604052805190602001201415610d9657610d8f87600501548786603c6046610a2a565b9150610f51565b604051602001610da590614d87565b6040516020818303038152906040528051906020012087600101604051602001610dcf9190614c55565b604051602081830303815290604052805190602001201415610e0457610dfd87600501548786603c80610a2a565b9150610f50565b604051602001610e1390614d9c565b6040516020818303038152906040528051906020012087600101604051602001610e3d9190614c55565b604051602081830303815290604052805190602001201415610e7357610e6c87600501548786603c605a610a2a565b9150610f4f565b604051602001610e8290614c6c565b6040516020818303038152906040528051906020012087600101604051602001610eac9190614c55565b604051602081830303815290604052805190602001201415610ee257610edb8760050154878660286032610a2a565b9150610f4e565b604051602001610ef190614d50565b6040516020818303038152906040528051906020012087600101604051602001610f1b9190614c55565b604051602081830303815290604052805190602001201415610f4d57610f4a8760050154878660506046610a2a565b91505b5b5b5b5b5b601e8511610f73576002600c60040154610f6c91906155c1565b9050610f7c565b600c6004015490505b6046831115610f8a57600090505b81600c600201541015610fa7576000600c60020181905550610fc2565b81600c60020154610fb8919061561b565b600c600201819055505b8087600301541015610fdd5760008760030181905550610ff6565b808760030154610fed919061561b565b87600301819055505b61101d60405180606001604052806025815260200161591060259139600c60020154612a9f565b611043604051806060016040528060288152602001615975602891398860030154612a9f565b7fe2226acb267bc3238fa9b7765f2ac980103e1b9cbff6ef3b3c04eec5137a65c9600c6002015488600301548b84866040516110839594939291906153e4565b60405180910390a150505050505050505050565b60008073ffffffffffffffffffffffffffffffffffffffff168273ffffffffffffffffffffffffffffffffffffffff161415611108576040517f08c379a00000000000000000000000000000000000000000000000000000000081526004016110ff906151d6565b60405180910390fd5b600360008373ffffffffffffffffffffffffffffffffffffffff1673ffffffffffffffffffffffffffffffffffffffff168152602001908152602001600020549050919050565b60126020528060005260406000206000915090505481565b7f000000000000000000000000000000000000000000000000000000000000000073ffffffffffffffffffffffffffffffffffffffff163373ffffffffffffffffffffffffffffffffffffffff16146111f5576040517f08c379a00000000000000000000000000000000000000000000000000000000081526004016111ec90615296565b60405180910390fd5b6111ff8282612b3b565b5050565b6060600180546112129061570f565b80601f016020809104026020016040519081016040528092919081815260200182805461123e9061570f565b801561128b5780601f106112605761010080835404028352916020019161128b565b820191906000526020600020905b81548152906001019060200180831161126e57829003601f168201915b5050505050905090565b60116020528060005260406000206000915090508060000154908060010180546112be9061570f565b80601f01602080910402602001604051908101604052809291908181526020018280546112ea9061570f565b80156113375780601f1061130c57610100808354040283529160200191611337565b820191906000526020600020905b81548152906001019060200180831161131a57829003601f168201915b50505050509080600201805461134c9061570f565b80601f01602080910402602001604051908101604052809291908181526020018280546113789061570f565b80156113c55780601f1061139a576101008083540402835291602001916113c5565b820191906000526020600020905b8154815290600101906020018083116113a857829003601f168201915b5050505050908060030154908060040154908060050154905086565b6113f36113ec61261d565b8383612b8b565b5050565b600c8060000180546114089061570f565b80601f01602080910402602001604051908101604052809291908181526020018280546114349061570f565b80156114815780601f1061145657610100808354040283529160200191611481565b820191906000526020600020905b81548152906001019060200180831161146457829003601f168201915b5050505050908060010180546114969061570f565b80601f01602080910402602001604051908101604052809291908181526020018280546114c29061570f565b801561150f5780601f106114e45761010080835404028352916020019161150f565b820191906000526020600020905b8154815290600101906020018083116114f257829003601f168201915b5050505050908060020154908060030154908060040154905085565b61153c61153661261d565b836126de565b61157b576040517f08c379a0000000000000000000000000000000000000000000000000000000008152600401611572906152f6565b60405180910390fd5b61158784848484612cf8565b50505050565b6060600b805480602002602001604051908101604052809291908181526020016000905b8282101561172f57838290600052602060002090600602016040518060c0016040529081600082015481526020016001820180546115ee9061570f565b80601f016020809104026020016040519081016040528092919081815260200182805461161a9061570f565b80156116675780601f1061163c57610100808354040283529160200191611667565b820191906000526020600020905b81548152906001019060200180831161164a57829003601f168201915b505050505081526020016002820180546116809061570f565b80601f01602080910402602001604051908101604052809291908181526020018280546116ac9061570f565b80156116f95780601f106116ce576101008083540402835291602001916116f9565b820191906000526020600020905b8154815290600101906020018083116116dc57829003601f168201915b505050505081526020016003820154815260200160048201548152602001600582015481525050815260200190600101906115b1565b50505050905090565b60606000601160008481526020019081526020016000206040518060c0016040529081600082015481526020016001820180546117749061570f565b80601f01602080910402602001604051908101604052809291908181526020018280546117a09061570f565b80156117ed5780601f106117c2576101008083540402835291602001916117ed565b820191906000526020600020905b8154815290600101906020018083116117d057829003601f168201915b505050505081526020016002820180546118069061570f565b80601f01602080910402602001604051908101604052809291908181526020018280546118329061570f565b801561187f5780601f106118545761010080835404028352916020019161187f565b820191906000526020600020905b81548152906001019060200180831161186257829003601f168201915b505050505081526020016003820154815260200160048201548152602001600582015481525050905060006118b78260600151612d54565b905060006118c88360800151612d54565b905060006118d98460a00151612d54565b9050600061191f85602001516118ee89612d54565b876040015187878760405160200161190b96959493929190614cab565b604051602081830303815290604052612f01565b90506000816040516020016119349190614d65565b6040516020818303038152906040529050809650505050505050919050565b61195b61380e565b6000601260003373ffffffffffffffffffffffffffffffffffffffff1673ffffffffffffffffffffffffffffffffffffffff1681526020019081526020016000205490506000811115611b1a57601160008281526020019081526020016000206040518060c0016040529081600082015481526020016001820180546119e09061570f565b80601f0160208091040260200160405190810160405280929190818152602001828054611a0c9061570f565b8015611a595780601f10611a2e57610100808354040283529160200191611a59565b820191906000526020600020905b815481529060010190602001808311611a3c57829003601f168201915b50505050508152602001600282018054611a729061570f565b80601f0160208091040260200160405190810160405280929190818152602001828054611a9e9061570f565b8015611aeb5780601f10611ac057610100808354040283529160200191611aeb565b820191906000526020600020905b815481529060010190602001808311611ace57829003601f168201915b505050505081526020016003820154815260200160048201548152602001600582015481525050915050611b28565b611b2261380e565b80925050505b90565b60136020528060005260406000206000915054906101000a900473ffffffffffffffffffffffffffffffffffffffff1681565b6000601260003373ffffffffffffffffffffffffffffffffffffffff1673ffffffffffffffffffffffffffffffffffffffff1681526020019081526020016000205490506000601160008381526020019081526020016000206040518060c001604052908160008201548152602001600182018054611bdc9061570f565b80601f0160208091040260200160405190810160405280929190818152602001828054611c089061570f565b8015611c555780601f10611c2a57610100808354040283529160200191611c55565b820191906000526020600020905b815481529060010190602001808311611c3857829003601f168201915b50505050508152602001600282018054611c6e9061570f565b80601f0160208091040260200160405190810160405280929190818152602001828054611c9a9061570f565b8015611ce75780601f10611cbc57610100808354040283529160200191611ce7565b820191906000526020600020905b815481529060010190602001808311611cca57829003601f168201915b5050505050815260200160038201548152602001600482015481526020016005820154815250509050611d406040518060600160405280603c81526020016159cb603c9139826020015183606001518460a001516130a0565b611e186040518060400160405280601b81526020017f426f73732025732068617320257320485020616e642025732041440000000000815250600c6000018054611d899061570f565b80601f0160208091040260200160405190810160405280929190818152602001828054611db59061570f565b8015611e025780601f10611dd757610100808354040283529160200191611e02565b820191906000526020600020905b815481529060010190602001808311611de557829003601f168201915b5050505050600c60020154600c600401546130a0565b6000816060015111611e5f576040517f08c379a0000000000000000000000000000000000000000000000000000000008152600401611e5690615216565b60405180910390fd5b6000600c6002015411611ea7576040517f08c379a0000000000000000000000000000000000000000000000000000000008152600401611e9e906150f6565b60405180910390fd5b611eaf611eb3565b5050565b6008547f000000000000000000000000000000000000000000000000000000000000000073ffffffffffffffffffffffffffffffffffffffff166370a08231306040518263ffffffff1660e01b8152600401611f0f9190614db1565b60206040518083038186803b158015611f2757600080fd5b505afa158015611f3b573d6000803e3d6000fd5b505050506040513d601f19601f82011682018060405250810190611f5f9190613ca7565b1015611fa0576040517f08c379a0000000000000000000000000000000000000000000000000000000008152600401611f9790615176565b60405180910390fd5b6000611fb0600754600854613142565b9050336013600083815260200190815260200160002060006101000a81548173ffffffffffffffffffffffffffffffffffffffff021916908373ffffffffffffffffffffffffffffffffffffffff16021790555050565b6000600560008473ffffffffffffffffffffffffffffffffffffffff1673ffffffffffffffffffffffffffffffffffffffff16815260200190815260200160002060008373ffffffffffffffffffffffffffffffffffffffff1673ffffffffffffffffffffffffffffffffffffffff16815260200190815260200160002060009054906101000a900460ff16905092915050565b60006120a7600a6132a4565b90506120b333826132b2565b6040518060c00160405280838152602001600b84815481106120fe577f4e487b7100000000000000000000000000000000000000000000000000000000600052603260045260246000fd5b9060005260206000209060060201600101805461211a9061570f565b80601f01602080910402602001604051908101604052809291908181526020018280546121469061570f565b80156121935780601f1061216857610100808354040283529160200191612193565b820191906000526020600020905b81548152906001019060200180831161217657829003601f168201915b50505050508152602001600b84815481106121d7577f4e487b7100000000000000000000000000000000000000000000000000000000600052603260045260246000fd5b906000526020600020906006020160020180546121f39061570f565b80601f016020809104026020016040519081016040528092919081815260200182805461221f9061570f565b801561226c5780601f106122415761010080835404028352916020019161226c565b820191906000526020600020905b81548152906001019060200180831161224f57829003601f168201915b50505050508152602001600b84815481106122b0577f4e487b7100000000000000000000000000000000000000000000000000000000600052603260045260246000fd5b9060005260206000209060060201600301548152602001600b8481548110612301577f4e487b7100000000000000000000000000000000000000000000000000000000600052603260045260246000fd5b9060005260206000209060060201600401548152602001600b8481548110612352577f4e487b7100000000000000000000000000000000000000000000000000000000600052603260045260246000fd5b906000526020600020906006020160050154815250601160008381526020019081526020016000206000820151816000015560208201518160010190805190602001906123a0929190613844565b5060408201518160020190805190602001906123bd929190613844565b50606082015181600301556080820151816004015560a082015181600501559050506124026040518060600160405280602e815260200161599d602e913982846132d0565b80601260003373ffffffffffffffffffffffffffffffffffffffff1673ffffffffffffffffffffffffffffffffffffffff16815260200190815260200160002081905550612450600a612531565b7f4bc303fd457a97b4691b9af582ce71868a3d258638c8d4f8c60988a0f0bfb8cd33828460405161248393929190614e56565b60405180910390a15050565b61252b848484846040516024016124a99493929190614f5a565b6040516020818303038152906040527f8d142cdd000000000000000000000000000000000000000000000000000000007bffffffffffffffffffffffffffffffffffffffffffffffffffffffff19166020820180517bffffffffffffffffffffffffffffffffffffffffffffffffffffffff838183161783525050505061336f565b50505050565b6001816000016000828254019250508190555050565b60007f01ffc9a7000000000000000000000000000000000000000000000000000000007bffffffffffffffffffffffffffffffffffffffffffffffffffffffff1916827bffffffffffffffffffffffffffffffffffffffffffffffffffffffff1916149050919050565b60008073ffffffffffffffffffffffffffffffffffffffff166002600084815260200190815260200160002060009054906101000a900473ffffffffffffffffffffffffffffffffffffffff1673ffffffffffffffffffffffffffffffffffffffff1614159050919050565b600033905090565b816004600083815260200190815260200160002060006101000a81548173ffffffffffffffffffffffffffffffffffffffff021916908373ffffffffffffffffffffffffffffffffffffffff160217905550808273ffffffffffffffffffffffffffffffffffffffff1661269883610b0f565b73ffffffffffffffffffffffffffffffffffffffff167f8c5be1e5ebec7d5bd14f71427d1e84f3dd0314c0f7b2291e5b200ac8c7c3b92560405160405180910390a45050565b60006126e9826125b1565b612728576040517f08c379a000000000000000000000000000000000000000000000000000000000815260040161271f90615196565b60405180910390fd5b600061273383610b0f565b90508073ffffffffffffffffffffffffffffffffffffffff168473ffffffffffffffffffffffffffffffffffffffff1614806127a257508373ffffffffffffffffffffffffffffffffffffffff1661278a8461082d565b73ffffffffffffffffffffffffffffffffffffffff16145b806127b357506127b28185612007565b5b91505092915050565b8273ffffffffffffffffffffffffffffffffffffffff166127dc82610b0f565b73ffffffffffffffffffffffffffffffffffffffff1614612832576040517f08c379a000000000000000000000000000000000000000000000000000000000815260040161282990615276565b60405180910390fd5b600073ffffffffffffffffffffffffffffffffffffffff168273ffffffffffffffffffffffffffffffffffffffff1614156128a2576040517f08c379a000000000000000000000000000000000000000000000000000000000815260040161289990615136565b60405180910390fd5b6128ad838383613398565b6128b8600082612625565b6001600360008573ffffffffffffffffffffffffffffffffffffffff1673ffffffffffffffffffffffffffffffffffffffff1681526020019081526020016000206000828254612908919061561b565b925050819055506001600360008473ffffffffffffffffffffffffffffffffffffffff1673ffffffffffffffffffffffffffffffffffffffff168152602001908152602001600020600082825461295f919061553a565b92505081905550816002600083815260200190815260200160002060006101000a81548173ffffffffffffffffffffffffffffffffffffffff021916908373ffffffffffffffffffffffffffffffffffffffff160217905550808273ffffffffffffffffffffffffffffffffffffffff168473ffffffffffffffffffffffffffffffffffffffff167fddf252ad1be2c89b69c2b068fc378daa952ba7f163c4a11628f55a4df523b3ef60405160405180910390a4505050565b6000806000806000606486612a2d919061579e565b9050600060648088612a3f9190615590565b612a49919061579e565b90506000606461271089612a5d9190615590565b612a67919061579e565b905060006064620f42408a612a7c9190615590565b612a86919061579e565b9050838383839750975097509750505050509193509193565b612b378282604051602401612ab5929190615068565b6040516020818303038152906040527f9710a9d0000000000000000000000000000000000000000000000000000000007bffffffffffffffffffffffffffffffffffffffffffffffffffffffff19166020820180517bffffffffffffffffffffffffffffffffffffffffffffffffffffffff838183161783525050505061336f565b5050565b8060098190555060006013600084815260200190815260200160002060009054906101000a900473ffffffffffffffffffffffffffffffffffffffff169050612b8660095482610bc1565b505050565b8173ffffffffffffffffffffffffffffffffffffffff168373ffffffffffffffffffffffffffffffffffffffff161415612bfa576040517f08c379a0000000000000000000000000000000000000000000000000000000008152600401612bf190615156565b60405180910390fd5b80600560008573ffffffffffffffffffffffffffffffffffffffff1673ffffffffffffffffffffffffffffffffffffffff16815260200190815260200160002060008473ffffffffffffffffffffffffffffffffffffffff1673ffffffffffffffffffffffffffffffffffffffff16815260200190815260200160002060006101000a81548160ff0219169083151502179055508173ffffffffffffffffffffffffffffffffffffffff168373ffffffffffffffffffffffffffffffffffffffff167f17307eab39ab6107e8899845ad3d59bd9653f200f220920489ca2b5937696c3183604051612ceb9190614eaf565b60405180910390a3505050565b612d038484846127bc565b612d0f8484848461339d565b612d4e576040517f08c379a0000000000000000000000000000000000000000000000000000000008152600401612d45906150d6565b60405180910390fd5b50505050565b60606000821415612d9c576040518060400160405280600181526020017f30000000000000000000000000000000000000000000000000000000000000008152509050612efc565b600082905060005b60008214612dce578080612db790615741565b915050600a82612dc79190615590565b9150612da4565b60008167ffffffffffffffff811115612e10577f4e487b7100000000000000000000000000000000000000000000000000000000600052604160045260246000fd5b6040519080825280601f01601f191660200182016040528015612e425781602001600182028036833780820191505090505b5090505b60008514612ef557600182612e5b919061561b565b9150600a85612e6a919061579e565b6030612e76919061553a565b60f81b818381518110612eb2577f4e487b7100000000000000000000000000000000000000000000000000000000600052603260045260246000fd5b60200101907effffffffffffffffffffffffffffffffffffffffffffffffffffffffffffff1916908160001a905350600a85612eee9190615590565b9450612e46565b8093505050505b919050565b6060600082511415612f245760405180602001604052806000815250905061309b565b60006040518060600160405280604081526020016159356040913990506000600360028551612f53919061553a565b612f5d9190615590565b6004612f6991906155c1565b90506000602082612f7a919061553a565b67ffffffffffffffff811115612fb9577f4e487b7100000000000000000000000000000000000000000000000000000000600052604160045260246000fd5b6040519080825280601f01601f191660200182016040528015612feb5781602001600182028036833780820191505090505b509050818152600183018586518101602084015b8183101561305a576003830192508251603f8160121c168501518253600182019150603f81600c1c168501518253600182019150603f8160061c168501518253600182019150603f8116850151825360018201915050612fff565b60038951066001811461307457600281146130845761308f565b613d3d60f01b600283035261308f565b603d60f81b60018303525b50505050508093505050505b919050565b61313c848484846040516024016130ba9493929190614fb4565b6040516020818303038152906040527fd5cf17d0000000000000000000000000000000000000000000000000000000007bffffffffffffffffffffffffffffffffffffffffffffffffffffffff19166020820180517bffffffffffffffffffffffffffffffffffffffffffffffffffffffff838183161783525050505061336f565b50505050565b60007f000000000000000000000000000000000000000000000000000000000000000073ffffffffffffffffffffffffffffffffffffffff16634000aea07f0000000000000000000000000000000000000000000000000000000000000000848660006040516020016131b6929190614eca565b6040516020818303038152906040526040518463ffffffff1660e01b81526004016131e393929190614e18565b602060405180830381600087803b1580156131fd57600080fd5b505af1158015613211573d6000803e3d6000fd5b505050506040513d601f19601f820116820180604052508101906132359190613b9e565b506000613258846000306006600089815260200190815260200160002054613534565b90506001600660008681526020019081526020016000205461327a919061553a565b600660008681526020019081526020016000208190555061329b8482613570565b91505092915050565b600081600001549050919050565b6132cc8282604051806020016040528060008152506135a3565b5050565b61336a8383836040516024016132e893929190615098565b6040516020818303038152906040527f969cdd03000000000000000000000000000000000000000000000000000000007bffffffffffffffffffffffffffffffffffffffffffffffffffffffff19166020820180517bffffffffffffffffffffffffffffffffffffffffffffffffffffffff838183161783525050505061336f565b505050565b60008151905060006a636f6e736f6c652e6c6f679050602083016000808483855afa5050505050565b505050565b60006133be8473ffffffffffffffffffffffffffffffffffffffff166135fe565b15613527578373ffffffffffffffffffffffffffffffffffffffff1663150b7a026133e761261d565b8786866040518563ffffffff1660e01b81526004016134099493929190614dcc565b602060405180830381600087803b15801561342357600080fd5b505af192505050801561345457506040513d601f19601f820116820180604052508101906134519190613c55565b60015b6134d7573d8060008114613484576040519150601f19603f3d011682016040523d82523d6000602084013e613489565b606091505b506000815114156134cf576040517f08c379a00000000000000000000000000000000000000000000000000000000081526004016134c6906150d6565b60405180910390fd5b805181602001fd5b63150b7a0260e01b7bffffffffffffffffffffffffffffffffffffffffffffffffffffffff1916817bffffffffffffffffffffffffffffffffffffffffffffffffffffffff19161491505061352c565b600190505b949350505050565b60008484848460405160200161354d9493929190614ef3565b6040516020818303038152906040528051906020012060001c9050949350505050565b60008282604051602001613585929190614c29565b60405160208183030381529060405280519060200120905092915050565b6135ad8383613611565b6135ba600084848461339d565b6135f9576040517f08c379a00000000000000000000000000000000000000000000000000000000081526004016135f0906150d6565b60405180910390fd5b505050565b600080823b905060008111915050919050565b600073ffffffffffffffffffffffffffffffffffffffff168273ffffffffffffffffffffffffffffffffffffffff161415613681576040517f08c379a000000000000000000000000000000000000000000000000000000000815260040161367890615236565b60405180910390fd5b61368a816125b1565b156136ca576040517f08c379a00000000000000000000000000000000000000000000000000000000081526004016136c190615116565b60405180910390fd5b6136d660008383613398565b6001600360008473ffffffffffffffffffffffffffffffffffffffff1673ffffffffffffffffffffffffffffffffffffffff1681526020019081526020016000206000828254613726919061553a565b92505081905550816002600083815260200190815260200160002060006101000a81548173ffffffffffffffffffffffffffffffffffffffff021916908373ffffffffffffffffffffffffffffffffffffffff160217905550808273ffffffffffffffffffffffffffffffffffffffff16600073ffffffffffffffffffffffffffffffffffffffff167fddf252ad1be2c89b69c2b068fc378daa952ba7f163c4a11628f55a4df523b3ef60405160405180910390a45050565b6040518060a0016040528060608152602001606081526020016000815260200160008152602001600081525090565b6040518060c001604052806000815260200160608152602001606081526020016000815260200160008152602001600081525090565b8280546138509061570f565b90600052602060002090601f01602090048101928261387257600085556138b9565b82601f1061388b57805160ff19168380011785556138b9565b828001600101855582156138b9579182015b828111156138b857825182559160200191906001019061389d565b5b5090506138c691906138ca565b5090565b5b808211156138e35760008160009055506001016138cb565b5090565b60006138fa6138f584615468565b615437565b90508281526020810184848401111561391257600080fd5b61391d8482856156cd565b509392505050565b6000813590506139348161589c565b92915050565b600081359050613949816158b3565b92915050565b60008151905061395e816158b3565b92915050565b600081359050613973816158ca565b92915050565b600081359050613988816158e1565b92915050565b60008151905061399d816158e1565b92915050565b600082601f8301126139b457600080fd5b81356139c48482602086016138e7565b91505092915050565b6000813590506139dc816158f8565b92915050565b6000815190506139f1816158f8565b92915050565b600060208284031215613a0957600080fd5b6000613a1784828501613925565b91505092915050565b60008060408385031215613a3357600080fd5b6000613a4185828601613925565b9250506020613a5285828601613925565b9150509250929050565b600080600060608486031215613a7157600080fd5b6000613a7f86828701613925565b9350506020613a9086828701613925565b9250506040613aa1868287016139cd565b9150509250925092565b60008060008060808587031215613ac157600080fd5b6000613acf87828801613925565b9450506020613ae087828801613925565b9350506040613af1878288016139cd565b925050606085013567ffffffffffffffff811115613b0e57600080fd5b613b1a878288016139a3565b91505092959194509250565b60008060408385031215613b3957600080fd5b6000613b4785828601613925565b9250506020613b588582860161393a565b9150509250929050565b60008060408385031215613b7557600080fd5b6000613b8385828601613925565b9250506020613b94858286016139cd565b9150509250929050565b600060208284031215613bb057600080fd5b6000613bbe8482850161394f565b91505092915050565b600060208284031215613bd957600080fd5b6000613be784828501613964565b91505092915050565b60008060408385031215613c0357600080fd5b6000613c1185828601613964565b9250506020613c22858286016139cd565b9150509250929050565b600060208284031215613c3e57600080fd5b6000613c4c84828501613979565b91505092915050565b600060208284031215613c6757600080fd5b6000613c758482850161398e565b91505092915050565b600060208284031215613c9057600080fd5b6000613c9e848285016139cd565b91505092915050565b600060208284031215613cb957600080fd5b6000613cc7848285016139e2565b91505092915050565b60008060408385031215613ce357600080fd5b6000613cf1858286016139cd565b9250506020613d0285828601613925565b9150509250929050565b600080600080600060a08688031215613d2457600080fd5b6000613d32888289016139cd565b9550506020613d43888289016139cd565b9450506040613d54888289016139cd565b9350506060613d65888289016139cd565b9250506080613d76888289016139cd565b9150509295509295909350565b6000613d8f8383614ad4565b905092915050565b613da08161564f565b82525050565b6000613db1826154bd565b613dbb81856154eb565b935083602082028501613dcd85615498565b8060005b85811015613e095784840389528151613dea8582613d83565b9450613df5836154de565b925060208a01995050600181019050613dd1565b50829750879550505050505092915050565b613e2481615661565b82525050565b613e338161566d565b82525050565b613e4a613e458261566d565b61578a565b82525050565b6000613e5b826154c8565b613e6581856154fc565b9350613e758185602086016156dc565b613e7e8161588b565b840191505092915050565b6000613e94826154d3565b613e9e818561550d565b9350613eae8185602086016156dc565b613eb78161588b565b840191505092915050565b6000613ecd826154d3565b613ed7818561551e565b9350613ee78185602086016156dc565b613ef08161588b565b840191505092915050565b6000613f06826154d3565b613f10818561552f565b9350613f208185602086016156dc565b80840191505092915050565b60008154613f398161570f565b613f43818661552f565b94506001821660008114613f5e5760018114613f6f57613fa2565b60ff19831686528186019350613fa2565b613f78856154a8565b60005b83811015613f9a57815481890152600182019150602081019050613f7b565b838801955050505b50505092915050565b6000613fb8600b8361552f565b91507f202d2d204e465420233a200000000000000000000000000000000000000000006000830152600b82019050919050565b6000613ff860328361551e565b91507f4552433732313a207472616e7366657220746f206e6f6e20455243373231526560008301527f63656976657220696d706c656d656e74657200000000000000000000000000006020830152604082019050919050565b600061405e60288361551e565b91507f4572726f723a20626f7373206d757374206861766520485020746f206174746160008301527f636b20626f73732e0000000000000000000000000000000000000000000000006020830152604082019050919050565b60006140c4601c8361551e565b91507f4552433732313a20746f6b656e20616c7265616479206d696e746564000000006000830152602082019050919050565b6000614104600e8361552f565b91507f2c20226d61785f76616c7565223a0000000000000000000000000000000000006000830152600e82019050919050565b600061414460248361551e565b91507f4552433732313a207472616e7366657220746f20746865207a65726f2061646460008301527f72657373000000000000000000000000000000000000000000000000000000006020830152604082019050919050565b60006141aa60198361551e565b91507f4552433732313a20617070726f766520746f2063616c6c6572000000000000006000830152602082019050919050565b60006141ea602b8361551e565b91507f4e6f7420656e6f756768204c494e4b202d2066696c6c20636f6e74726163742060008301527f77697468206661756365740000000000000000000000000000000000000000006020830152604082019050919050565b6000614250602c8361551e565b91507f4552433732313a206f70657261746f7220717565727920666f72206e6f6e657860008301527f697374656e7420746f6b656e00000000000000000000000000000000000000006020830152604082019050919050565b60006142b660048361552f565b91507f48756c6b000000000000000000000000000000000000000000000000000000006000830152600482019050919050565b60006142f660648361552f565b91507f222c20226465736372697074696f6e223a20225468697320697320616e204e4660008301527f542074686174206c6574732070656f706c6520706c617920696e20746865206760208301527f616d65204d6574617665727365204176656e6765727321222c2022696d61676560408301527f223a2022000000000000000000000000000000000000000000000000000000006060830152606482019050919050565b60006143a8600f8361552f565b91507f4361707461696e20416d657269636100000000000000000000000000000000006000830152600f82019050919050565b60006143e860388361551e565b91507f4552433732313a20617070726f76652063616c6c6572206973206e6f74206f7760008301527f6e6572206e6f7220617070726f76656420666f7220616c6c00000000000000006020830152604082019050919050565b600061444e602a8361551e565b91507f4552433732313a2062616c616e636520717565727920666f7220746865207a6560008301527f726f2061646472657373000000000000000000000000000000000000000000006020830152604082019050919050565b60006144b460298361551e565b91507f4552433732313a206f776e657220717565727920666f72206e6f6e657869737460008301527f656e7420746f6b656e00000000000000000000000000000000000000000000006020830152604082019050919050565b600061451a60088361552f565b91507f49726f6e204d616e0000000000000000000000000000000000000000000000006000830152600882019050919050565b600061455a602d8361551e565b91507f4572726f723a20636861726163746572206d757374206861766520485020746f60008301527f2061747461636b20626f73732e000000000000000000000000000000000000006020830152604082019050919050565b60006145c060048361552f565b91507f7d205d7d000000000000000000000000000000000000000000000000000000006000830152600482019050919050565b600061460060208361551e565b91507f4552433732313a206d696e7420746f20746865207a65726f20616464726573736000830152602082019050919050565b6000614640602c8361551e565b91507f4552433732313a20617070726f76656420717565727920666f72206e6f6e657860008301527f697374656e7420746f6b656e00000000000000000000000000000000000000006020830152604082019050919050565b60006146a660298361551e565b91507f4552433732313a207472616e73666572206f6620746f6b656e2074686174206960008301527f73206e6f74206f776e00000000000000000000000000000000000000000000006020830152604082019050919050565b600061470c600a8361552f565b91507f7b226e616d65223a2022000000000000000000000000000000000000000000006000830152600a82019050919050565b600061474c601f8361551e565b91507f4f6e6c7920565246436f6f7264696e61746f722063616e2066756c66696c6c006000830152602082019050919050565b600061478c600b8361552f565b91507f426c61636b205769646f770000000000000000000000000000000000000000006000830152600b82019050919050565b60006147cc60218361551e565b91507f4552433732313a20617070726f76616c20746f2063757272656e74206f776e6560008301527f72000000000000000000000000000000000000000000000000000000000000006020830152604082019050919050565b600061483260208361551e565b91507f6f6e6c7920564652432063616e2063616c6c20746869732066756e6374696f6e6000830152602082019050919050565b6000614872601d8361552f565b91507f646174613a6170706c69636174696f6e2f6a736f6e3b6261736536342c0000006000830152601d82019050919050565b60006148b260048361552f565b91507f54686f72000000000000000000000000000000000000000000000000000000006000830152600482019050919050565b60006148f260318361551e565b91507f4552433732313a207472616e736665722063616c6c6572206973206e6f74206f60008301527f776e6572206e6f7220617070726f7665640000000000000000000000000000006020830152604082019050919050565b6000614958603d8361552f565b91507f222c202261747472696275746573223a205b207b202274726169745f7479706560008301527f223a20224865616c746820506f696e7473222c202276616c7565223a200000006020830152603d82019050919050565b60006149be602d8361552f565b91507f7d2c207b202274726169745f74797065223a202241747461636b2044616d616760008301527f65222c202276616c7565223a20000000000000000000000000000000000000006020830152602d82019050919050565b6000614a2460078361552f565b91507f4861776b657965000000000000000000000000000000000000000000000000006000830152600782019050919050565b600060a0830160008301518482036000860152614a748282613e89565b91505060208301518482036020860152614a8e8282613e89565b9150506040830151614aa36040860182614bf4565b506060830151614ab66060860182614bf4565b506080830151614ac96080860182614bf4565b508091505092915050565b600060c083016000830151614aec6000860182614bf4565b5060208301518482036020860152614b048282613e89565b91505060408301518482036040860152614b1e8282613e89565b9150506060830151614b336060860182614bf4565b506080830151614b466080860182614bf4565b5060a0830151614b5960a0860182614bf4565b508091505092915050565b600060c083016000830151614b7c6000860182614bf4565b5060208301518482036020860152614b948282613e89565b91505060408301518482036040860152614bae8282613e89565b9150506060830151614bc36060860182614bf4565b506080830151614bd66080860182614bf4565b5060a0830151614be960a0860182614bf4565b508091505092915050565b614bfd816156c3565b82525050565b614c0c816156c3565b82525050565b614c23614c1e826156c3565b615794565b82525050565b6000614c358285613e39565b602082019150614c458284614c12565b6020820191508190509392505050565b6000614c618284613f2c565b915081905092915050565b6000614c77826142a9565b9150819050919050565b6000614c8c8261439b565b9150819050919050565b6000614ca18261450d565b9150819050919050565b6000614cb6826146ff565b9150614cc28289613efb565b9150614ccd82613fab565b9150614cd98288613efb565b9150614ce4826142e9565b9150614cf08287613efb565b9150614cfb8261494b565b9150614d078286613efb565b9150614d12826140f7565b9150614d1e8285613efb565b9150614d29826149b1565b9150614d358284613efb565b9150614d40826145b3565b9150819050979650505050505050565b6000614d5b8261477f565b9150819050919050565b6000614d7082614865565b9150614d7c8284613efb565b915081905092915050565b6000614d92826148a5565b9150819050919050565b6000614da782614a17565b9150819050919050565b6000602082019050614dc66000830184613d97565b92915050565b6000608082019050614de16000830187613d97565b614dee6020830186613d97565b614dfb6040830185614c03565b8181036060830152614e0d8184613e50565b905095945050505050565b6000606082019050614e2d6000830186613d97565b614e3a6020830185614c03565b8181036040830152614e4c8184613e50565b9050949350505050565b6000606082019050614e6b6000830186613d97565b614e786020830185614c03565b614e856040830184614c03565b949350505050565b60006020820190508181036000830152614ea78184613da6565b905092915050565b6000602082019050614ec46000830184613e1b565b92915050565b6000604082019050614edf6000830185613e2a565b614eec6020830184614c03565b9392505050565b6000608082019050614f086000830187613e2a565b614f156020830186614c03565b614f226040830185613d97565b614f2f6060830184614c03565b95945050505050565b60006020820190508181036000830152614f528184613ec2565b905092915050565b60006080820190508181036000830152614f748187613ec2565b90508181036020830152614f888186613ec2565b9050614f976040830185614c03565b8181036060830152614fa98184613ec2565b905095945050505050565b60006080820190508181036000830152614fce8187613ec2565b90508181036020830152614fe28186613ec2565b9050614ff16040830185614c03565b614ffe6060830184614c03565b95945050505050565b600060a08201905081810360008301526150218188613ec2565b905081810360208301526150358187613ec2565b90506150446040830186614c03565b6150516060830185614c03565b61505e6080830184614c03565b9695505050505050565b600060408201905081810360008301526150828185613ec2565b90506150916020830184614c03565b9392505050565b600060608201905081810360008301526150b28186613ec2565b90506150c16020830185614c03565b6150ce6040830184614c03565b949350505050565b600060208201905081810360008301526150ef81613feb565b9050919050565b6000602082019050818103600083015261510f81614051565b9050919050565b6000602082019050818103600083015261512f816140b7565b9050919050565b6000602082019050818103600083015261514f81614137565b9050919050565b6000602082019050818103600083015261516f8161419d565b9050919050565b6000602082019050818103600083015261518f816141dd565b9050919050565b600060208201905081810360008301526151af81614243565b9050919050565b600060208201905081810360008301526151cf816143db565b9050919050565b600060208201905081810360008301526151ef81614441565b9050919050565b6000602082019050818103600083015261520f816144a7565b9050919050565b6000602082019050818103600083015261522f8161454d565b9050919050565b6000602082019050818103600083015261524f816145f3565b9050919050565b6000602082019050818103600083015261526f81614633565b9050919050565b6000602082019050818103600083015261528f81614699565b9050919050565b600060208201905081810360008301526152af8161473f565b9050919050565b600060208201905081810360008301526152cf816147bf565b9050919050565b600060208201905081810360008301526152ef81614825565b9050919050565b6000602082019050818103600083015261530f816148e5565b9050919050565b600060208201905081810360008301526153308184614a57565b905092915050565b600060208201905081810360008301526153528184614b64565b905092915050565b600060208201905061536f6000830184614c03565b92915050565b600060c08201905061538a6000830189614c03565b818103602083015261539c8188613ec2565b905081810360408301526153b08187613ec2565b90506153bf6060830186614c03565b6153cc6080830185614c03565b6153d960a0830184614c03565b979650505050505050565b600060a0820190506153f96000830188614c03565b6154066020830187614c03565b6154136040830186613d97565b6154206060830185614c03565b61542d6080830184614c03565b9695505050505050565b6000604051905081810181811067ffffffffffffffff8211171561545e5761545d61585c565b5b8060405250919050565b600067ffffffffffffffff8211156154835761548261585c565b5b601f19601f8301169050602081019050919050565b6000819050602082019050919050565b60008190508160005260206000209050919050565b600081519050919050565b600081519050919050565b600081519050919050565b6000602082019050919050565b600082825260208201905092915050565b600082825260208201905092915050565b600082825260208201905092915050565b600082825260208201905092915050565b600081905092915050565b6000615545826156c3565b9150615550836156c3565b9250827fffffffffffffffffffffffffffffffffffffffffffffffffffffffffffffffff03821115615585576155846157cf565b5b828201905092915050565b600061559b826156c3565b91506155a6836156c3565b9250826155b6576155b56157fe565b5b828204905092915050565b60006155cc826156c3565b91506155d7836156c3565b9250817fffffffffffffffffffffffffffffffffffffffffffffffffffffffffffffffff04831182151516156156105761560f6157cf565b5b828202905092915050565b6000615626826156c3565b9150615631836156c3565b925082821015615644576156436157cf565b5b828203905092915050565b600061565a826156a3565b9050919050565b60008115159050919050565b6000819050919050565b60007fffffffff0000000000000000000000000000000000000000000000000000000082169050919050565b600073ffffffffffffffffffffffffffffffffffffffff82169050919050565b6000819050919050565b82818337600083830152505050565b60005b838110156156fa5780820151818401526020810190506156df565b83811115615709576000848401525b50505050565b6000600282049050600182168061572757607f821691505b6020821081141561573b5761573a61582d565b5b50919050565b600061574c826156c3565b91507fffffffffffffffffffffffffffffffffffffffffffffffffffffffffffffffff82141561577f5761577e6157cf565b5b600182019050919050565b6000819050919050565b6000819050919050565b60006157a9826156c3565b91506157b4836156c3565b9250826157c4576157c36157fe565b5b828206905092915050565b7f4e487b7100000000000000000000000000000000000000000000000000000000600052601160045260246000fd5b7f4e487b7100000000000000000000000000000000000000000000000000000000600052601260045260246000fd5b7f4e487b7100000000000000000000000000000000000000000000000000000000600052602260045260246000fd5b7f4e487b7100000000000000000000000000000000000000000000000000000000600052604160045260246000fd5b6000601f19601f8301169050919050565b6158a58161564f565b81146158b057600080fd5b50565b6158bc81615661565b81146158c757600080fd5b50565b6158d38161566d565b81146158de57600080fd5b50565b6158ea81615677565b81146158f557600080fd5b50565b615901816156c3565b811461590c57600080fd5b5056fe506c617965722061747461636b656420626f73732e204e657720626f73732068703a2025734142434445464748494a4b4c4d4e4f505152535455565758595a6162636465666768696a6b6c6d6e6f707172737475767778797a303132333435363738392b2f426f73732061747461636b656420706c617965722e204e657720706c617965722068703a2025730a4d696e746564204e465420772f20746f6b656e496420257320616e6420636861726163746572496e6465782025730a506c6179657220772f206368617261637465722025732061626f757420746f2061747461636b2e2048617320257320485020616e64202573204144a2646970667358221220a9e01ce3751184c15c951cf46278bce7f2111b8c112c0834881a1cc4d59ae6b564736f6c63430008000033446f6e6520696e697469616c697a696e6720257320772f2048502025732c20696d67202573446f6e6520696e697469616c697a696e6720626f737320257320772f2048502025732c20696d67202573",
  "linkReferences": {},
  "deployedLinkReferences": {}
}